{
  "contractName": "LocalKitty",
  "abi": [
    {
      "constant": true,
      "inputs": [
        {
          "name": "",
          "type": "uint256"
        }
      ],
      "name": "kitties",
      "outputs": [
        {
          "name": "genes",
          "type": "uint256"
        },
        {
          "name": "birthTime",
          "type": "uint64"
        },
        {
          "name": "matronId",
          "type": "uint32"
        },
        {
          "name": "sireId",
          "type": "uint32"
        },
        {
          "name": "generation",
          "type": "uint16"
        }
      ],
      "payable": false,
      "stateMutability": "view",
      "type": "function"
    },
    {
      "anonymous": false,
      "inputs": [
        {
          "indexed": false,
          "name": "kittyId",
          "type": "uint256"
        },
        {
          "indexed": false,
          "name": "genes",
          "type": "uint256"
        }
      ],
      "name": "KittyCreated",
      "type": "event"
    },
    {
      "constant": false,
      "inputs": [
        {
          "name": "_genes",
          "type": "uint256"
        }
      ],
      "name": "createKitty",
      "outputs": [
        {
          "name": "",
          "type": "uint256"
        }
      ],
      "payable": false,
      "stateMutability": "nonpayable",
      "type": "function"
    },
    {
      "constant": true,
      "inputs": [
        {
          "name": "_id",
          "type": "uint256"
        }
      ],
      "name": "getKitty",
      "outputs": [
        {
          "name": "isGestating",
          "type": "bool"
        },
        {
          "name": "isReady",
          "type": "bool"
        },
        {
          "name": "cooldownIndex",
          "type": "uint256"
        },
        {
          "name": "nextActionAt",
          "type": "uint256"
        },
        {
          "name": "siringWithId",
          "type": "uint256"
        },
        {
          "name": "birthTime",
          "type": "uint256"
        },
        {
          "name": "matronId",
          "type": "uint256"
        },
        {
          "name": "sireId",
          "type": "uint256"
        },
        {
          "name": "generation",
          "type": "uint256"
        },
        {
          "name": "genes",
          "type": "uint256"
        }
      ],
      "payable": false,
      "stateMutability": "view",
      "type": "function"
    },
    {
      "constant": true,
      "inputs": [],
      "name": "totalSupply",
      "outputs": [
        {
          "name": "",
          "type": "uint256"
        }
      ],
      "payable": false,
      "stateMutability": "view",
      "type": "function"
    }
  ],
  "bytecode": "0x608060405234801561001057600080fd5b50610540806100206000396000f300608060405260043610610062576000357c0100000000000000000000000000000000000000000000000000000000900463ffffffff16806318160ddd146100675780638cc51eda14610092578063b063466414610123578063e98b7f4d14610164575b600080fd5b34801561007357600080fd5b5061007c6101ec565b6040518082815260200191505060405180910390f35b34801561009e57600080fd5b506100bd600480360381019080803590602001909291905050506101f8565b604051808681526020018567ffffffffffffffff1667ffffffffffffffff1681526020018463ffffffff1663ffffffff1681526020018363ffffffff1663ffffffff1681526020018261ffff1661ffff1681526020019550505050505060405180910390f35b34801561012f57600080fd5b5061014e6004803603810190808035906020019092919050505061027f565b6040518082815260200191505060405180910390f35b34801561017057600080fd5b5061018f600480360381019080803590602001909291905050506103fa565b604051808b1515151581526020018a1515151581526020018981526020018881526020018781526020018681526020018581526020018481526020018381526020018281526020019a505050505050505050505060405180910390f35b60008080549050905090565b60008181548110151561020757fe5b90600052602060002090600202016000915090508060000154908060010160009054906101000a900467ffffffffffffffff16908060010160089054906101000a900463ffffffff169080600101600c9054906101000a900463ffffffff16908060010160109054906101000a900461ffff16905085565b60006102896104ca565b600060a0604051908101604052808581526020014267ffffffffffffffff168152602001600063ffffffff168152602001600063ffffffff168152602001600061ffff1681525091506001600083908060018154018082558091505090600182039060005260206000209060020201600090919290919091506000820151816000015560208201518160010160006101000a81548167ffffffffffffffff021916908367ffffffffffffffff16021790555060408201518160010160086101000a81548163ffffffff021916908363ffffffff160217905550606082015181600101600c6101000a81548163ffffffff021916908363ffffffff16021790555060808201518160010160106101000a81548161ffff021916908361ffff16021790555050500390507ffdb94f1b159492d9a08dd8bb7f6db099e9d8ef66380a5dc3a428d5389705588b8185604051808381526020018281526020019250505060405180910390a18092505050919050565b6000806000806000806000806000806000808c81548110151561041957fe5b9060005260206000209060020201905060009a50600199506000985060009750600096508060010160009054906101000a900467ffffffffffffffff1667ffffffffffffffff1695508060010160089054906101000a900463ffffffff1663ffffffff16945080600101600c9054906101000a900463ffffffff1663ffffffff1693508060010160109054906101000a900461ffff1661ffff16925080600001549150509193959799509193959799565b60a06040519081016040528060008152602001600067ffffffffffffffff168152602001600063ffffffff168152602001600063ffffffff168152602001600061ffff16815250905600a165627a7a723058204137e46a0d94f74a28c15ed486e96a48407842bf3a0aaeb4af111f00b87b09170029",
  "source": "pragma solidity ^0.4.25;\n\ncontract LocalKitty {\n\n    struct Kitty {\n        uint256 genes;\n        uint64  birthTime;\n        uint32  matronId;\n        uint32  sireId;\n        uint16  generation;\n    }\n\n    Kitty[] public kitties;\n\n    event KittyCreated(uint256 kittyId, uint256 genes);\n\n    function createKitty(uint256 _genes) public returns (uint256) {\n        Kitty memory k = Kitty({\n            genes:      _genes,\n            birthTime:  uint64(now),\n            matronId:   0,\n            sireId:     0,\n            generation: 0\n        });\n        uint256 id = kitties.push(k) - 1;\n        emit KittyCreated(id, _genes);\n        return id;\n    }\n\n    function getKitty(uint256 _id) external view returns (\n        bool  isGestating,\n        bool  isReady,\n        uint256 cooldownIndex,\n        uint256 nextActionAt,\n        uint256 siringWithId,\n        uint256 birthTime,\n        uint256 matronId,\n        uint256 sireId,\n        uint256 generation,\n        uint256 genes\n    ) {\n        Kitty storage k = kitties[_id];\n        isGestating  = false;\n        isReady      = true;\n        cooldownIndex = 0;\n        nextActionAt  = 0;\n        siringWithId  = 0;\n        birthTime     = uint256(k.birthTime);\n        matronId      = uint256(k.matronId);\n        sireId        = uint256(k.sireId);\n        generation    = uint256(k.generation);\n        genes         = k.genes;\n    }\n\n    function totalSupply() public view returns (uint256) {\n        return kitties.length;\n    }\n}\n",
  "sourcePath": "/app/contracts/LocalKitty.sol",
  "compiler": {
    "name": "solc",
    "version": "0.4.25+commit.59dbf8f1.Emscripten.clang"
  },
  "schemaVersion": "3.4.16",
  "updatedAt": "2026-03-17T06:07:24.727Z",
  "networkType": "ethereum",
  "devdoc": {
    "methods": {}
  },
  "userdoc": {
    "methods": {}
  }
}