{
  "contractName": "ZombieBattle",
  "abi": [
    {
      "constant": true,
      "inputs": [],
      "name": "name",
      "outputs": [
        {
          "name": "",
          "type": "string"
        }
      ],
      "payable": false,
      "stateMutability": "view",
      "type": "function"
    },
    {
      "constant": false,
      "inputs": [
        {
          "name": "_approved",
          "type": "address"
        },
        {
          "name": "_tokenId",
          "type": "uint256"
        }
      ],
      "name": "approve",
      "outputs": [],
      "payable": true,
      "stateMutability": "payable",
      "type": "function"
    },
    {
      "constant": false,
      "inputs": [
        {
          "name": "_zombieId",
          "type": "uint256"
        }
      ],
      "name": "levelUp",
      "outputs": [],
      "payable": true,
      "stateMutability": "payable",
      "type": "function"
    },
    {
      "constant": true,
      "inputs": [
        {
          "name": "",
          "type": "uint256"
        }
      ],
      "name": "zombieIsListed",
      "outputs": [
        {
          "name": "",
          "type": "bool"
        }
      ],
      "payable": false,
      "stateMutability": "view",
      "type": "function"
    },
    {
      "constant": true,
      "inputs": [
        {
          "name": "",
          "type": "uint256"
        }
      ],
      "name": "zombieToListing",
      "outputs": [
        {
          "name": "",
          "type": "uint256"
        }
      ],
      "payable": false,
      "stateMutability": "view",
      "type": "function"
    },
    {
      "constant": false,
      "inputs": [
        {
          "name": "_zombieId",
          "type": "uint256"
        }
      ],
      "name": "delistZombie",
      "outputs": [],
      "payable": false,
      "stateMutability": "nonpayable",
      "type": "function"
    },
    {
      "constant": false,
      "inputs": [
        {
          "name": "_zombieId",
          "type": "uint256"
        },
        {
          "name": "_kittyId",
          "type": "uint256"
        }
      ],
      "name": "feedOnKitty",
      "outputs": [],
      "payable": false,
      "stateMutability": "nonpayable",
      "type": "function"
    },
    {
      "constant": true,
      "inputs": [],
      "name": "totalSupply",
      "outputs": [
        {
          "name": "",
          "type": "uint256"
        }
      ],
      "payable": false,
      "stateMutability": "view",
      "type": "function"
    },
    {
      "constant": true,
      "inputs": [
        {
          "name": "",
          "type": "uint256"
        }
      ],
      "name": "zombies",
      "outputs": [
        {
          "name": "name",
          "type": "string"
        },
        {
          "name": "dna",
          "type": "uint256"
        },
        {
          "name": "level",
          "type": "uint32"
        },
        {
          "name": "readyTime",
          "type": "uint32"
        },
        {
          "name": "winCount",
          "type": "uint16"
        },
        {
          "name": "lossCount",
          "type": "uint16"
        }
      ],
      "payable": false,
      "stateMutability": "view",
      "type": "function"
    },
    {
      "constant": false,
      "inputs": [
        {
          "name": "_from",
          "type": "address"
        },
        {
          "name": "_to",
          "type": "address"
        },
        {
          "name": "_tokenId",
          "type": "uint256"
        }
      ],
      "name": "transferFrom",
      "outputs": [],
      "payable": true,
      "stateMutability": "payable",
      "type": "function"
    },
    {
      "constant": true,
      "inputs": [],
      "name": "decimals",
      "outputs": [
        {
          "name": "",
          "type": "uint8"
        }
      ],
      "payable": false,
      "stateMutability": "view",
      "type": "function"
    },
    {
      "constant": true,
      "inputs": [
        {
          "name": "",
          "type": "address"
        }
      ],
      "name": "zombieCoins",
      "outputs": [
        {
          "name": "",
          "type": "uint256"
        }
      ],
      "payable": false,
      "stateMutability": "view",
      "type": "function"
    },
    {
      "constant": true,
      "inputs": [],
      "name": "ETH_PER_PURCHASE",
      "outputs": [
        {
          "name": "",
          "type": "uint256"
        }
      ],
      "payable": false,
      "stateMutability": "view",
      "type": "function"
    },
    {
      "constant": true,
      "inputs": [],
      "name": "WIN_BONUS",
      "outputs": [
        {
          "name": "",
          "type": "uint256"
        }
      ],
      "payable": false,
      "stateMutability": "view",
      "type": "function"
    },
    {
      "constant": false,
      "inputs": [],
      "name": "withdraw",
      "outputs": [],
      "payable": false,
      "stateMutability": "nonpayable",
      "type": "function"
    },
    {
      "constant": true,
      "inputs": [
        {
          "name": "_owner",
          "type": "address"
        }
      ],
      "name": "getZombiesByOwner",
      "outputs": [
        {
          "name": "",
          "type": "uint256[]"
        }
      ],
      "payable": false,
      "stateMutability": "view",
      "type": "function"
    },
    {
      "constant": true,
      "inputs": [],
      "name": "COINS_PER_ETH",
      "outputs": [
        {
          "name": "",
          "type": "uint256"
        }
      ],
      "payable": false,
      "stateMutability": "view",
      "type": "function"
    },
    {
      "constant": true,
      "inputs": [
        {
          "name": "_player",
          "type": "address"
        }
      ],
      "name": "hasClaimedStarter",
      "outputs": [
        {
          "name": "",
          "type": "bool"
        }
      ],
      "payable": false,
      "stateMutability": "view",
      "type": "function"
    },
    {
      "constant": true,
      "inputs": [
        {
          "name": "",
          "type": "uint256"
        }
      ],
      "name": "zombieToOwner",
      "outputs": [
        {
          "name": "",
          "type": "address"
        }
      ],
      "payable": false,
      "stateMutability": "view",
      "type": "function"
    },
    {
      "constant": false,
      "inputs": [
        {
          "name": "_address",
          "type": "address"
        }
      ],
      "name": "setKittyContractAddress",
      "outputs": [],
      "payable": false,
      "stateMutability": "nonpayable",
      "type": "function"
    },
    {
      "constant": false,
      "inputs": [
        {
          "name": "_zombieId",
          "type": "uint256"
        },
        {
          "name": "_newDna",
          "type": "uint256"
        }
      ],
      "name": "changeDna",
      "outputs": [],
      "payable": false,
      "stateMutability": "nonpayable",
      "type": "function"
    },
    {
      "constant": true,
      "inputs": [
        {
          "name": "_tokenId",
          "type": "uint256"
        }
      ],
      "name": "ownerOf",
      "outputs": [
        {
          "name": "",
          "type": "address"
        }
      ],
      "payable": false,
      "stateMutability": "view",
      "type": "function"
    },
    {
      "constant": true,
      "inputs": [],
      "name": "MIN_BET",
      "outputs": [
        {
          "name": "",
          "type": "uint256"
        }
      ],
      "payable": false,
      "stateMutability": "view",
      "type": "function"
    },
    {
      "constant": true,
      "inputs": [],
      "name": "STARTER_AMOUNT",
      "outputs": [
        {
          "name": "",
          "type": "uint256"
        }
      ],
      "payable": false,
      "stateMutability": "view",
      "type": "function"
    },
    {
      "constant": true,
      "inputs": [
        {
          "name": "_owner",
          "type": "address"
        }
      ],
      "name": "balanceOf",
      "outputs": [
        {
          "name": "",
          "type": "uint256"
        }
      ],
      "payable": false,
      "stateMutability": "view",
      "type": "function"
    },
    {
      "constant": false,
      "inputs": [],
      "name": "renounceOwnership",
      "outputs": [],
      "payable": false,
      "stateMutability": "nonpayable",
      "type": "function"
    },
    {
      "constant": false,
      "inputs": [
        {
          "name": "_name",
          "type": "string"
        }
      ],
      "name": "createRandomZombie",
      "outputs": [],
      "payable": false,
      "stateMutability": "nonpayable",
      "type": "function"
    },
    {
      "constant": true,
      "inputs": [],
      "name": "getActiveListings",
      "outputs": [
        {
          "name": "",
          "type": "uint256[]"
        }
      ],
      "payable": false,
      "stateMutability": "view",
      "type": "function"
    },
    {
      "constant": true,
      "inputs": [],
      "name": "getListingCount",
      "outputs": [
        {
          "name": "",
          "type": "uint256"
        }
      ],
      "payable": false,
      "stateMutability": "view",
      "type": "function"
    },
    {
      "constant": true,
      "inputs": [],
      "name": "owner",
      "outputs": [
        {
          "name": "",
          "type": "address"
        }
      ],
      "payable": false,
      "stateMutability": "view",
      "type": "function"
    },
    {
      "constant": true,
      "inputs": [
        {
          "name": "",
          "type": "address"
        }
      ],
      "name": "claimedStarter",
      "outputs": [
        {
          "name": "",
          "type": "bool"
        }
      ],
      "payable": false,
      "stateMutability": "view",
      "type": "function"
    },
    {
      "constant": true,
      "inputs": [],
      "name": "isOwner",
      "outputs": [
        {
          "name": "",
          "type": "bool"
        }
      ],
      "payable": false,
      "stateMutability": "view",
      "type": "function"
    },
    {
      "constant": true,
      "inputs": [],
      "name": "symbol",
      "outputs": [
        {
          "name": "",
          "type": "string"
        }
      ],
      "payable": false,
      "stateMutability": "view",
      "type": "function"
    },
    {
      "constant": false,
      "inputs": [],
      "name": "buyCoins",
      "outputs": [],
      "payable": true,
      "stateMutability": "payable",
      "type": "function"
    },
    {
      "constant": true,
      "inputs": [
        {
          "name": "_player",
          "type": "address"
        }
      ],
      "name": "getZombieCoins",
      "outputs": [
        {
          "name": "",
          "type": "uint256"
        }
      ],
      "payable": false,
      "stateMutability": "view",
      "type": "function"
    },
    {
      "constant": false,
      "inputs": [
        {
          "name": "_zombieId",
          "type": "uint256"
        }
      ],
      "name": "buyZombie",
      "outputs": [],
      "payable": true,
      "stateMutability": "payable",
      "type": "function"
    },
    {
      "constant": false,
      "inputs": [
        {
          "name": "_zombieId",
          "type": "uint256"
        },
        {
          "name": "_newName",
          "type": "string"
        }
      ],
      "name": "changeName",
      "outputs": [],
      "payable": false,
      "stateMutability": "nonpayable",
      "type": "function"
    },
    {
      "constant": false,
      "inputs": [
        {
          "name": "_fee",
          "type": "uint256"
        }
      ],
      "name": "setLevelUpFee",
      "outputs": [],
      "payable": false,
      "stateMutability": "nonpayable",
      "type": "function"
    },
    {
      "constant": true,
      "inputs": [],
      "name": "COINS_PER_PURCHASE",
      "outputs": [
        {
          "name": "",
          "type": "uint256"
        }
      ],
      "payable": false,
      "stateMutability": "view",
      "type": "function"
    },
    {
      "constant": true,
      "inputs": [
        {
          "name": "",
          "type": "uint256"
        }
      ],
      "name": "listings",
      "outputs": [
        {
          "name": "zombieId",
          "type": "uint256"
        },
        {
          "name": "seller",
          "type": "address"
        },
        {
          "name": "price",
          "type": "uint256"
        },
        {
          "name": "active",
          "type": "bool"
        }
      ],
      "payable": false,
      "stateMutability": "view",
      "type": "function"
    },
    {
      "constant": false,
      "inputs": [
        {
          "name": "_zombieId",
          "type": "uint256"
        },
        {
          "name": "_targetId",
          "type": "uint256"
        }
      ],
      "name": "attack",
      "outputs": [],
      "payable": false,
      "stateMutability": "nonpayable",
      "type": "function"
    },
    {
      "constant": false,
      "inputs": [
        {
          "name": "_zombieId",
          "type": "uint256"
        },
        {
          "name": "_price",
          "type": "uint256"
        }
      ],
      "name": "listZombie",
      "outputs": [],
      "payable": false,
      "stateMutability": "nonpayable",
      "type": "function"
    },
    {
      "constant": false,
      "inputs": [],
      "name": "claimStarterCoins",
      "outputs": [],
      "payable": false,
      "stateMutability": "nonpayable",
      "type": "function"
    },
    {
      "constant": false,
      "inputs": [
        {
          "name": "newOwner",
          "type": "address"
        }
      ],
      "name": "transferOwnership",
      "outputs": [],
      "payable": false,
      "stateMutability": "nonpayable",
      "type": "function"
    },
    {
      "anonymous": false,
      "inputs": [
        {
          "indexed": true,
          "name": "attackerId",
          "type": "uint256"
        },
        {
          "indexed": true,
          "name": "targetId",
          "type": "uint256"
        },
        {
          "indexed": false,
          "name": "winner",
          "type": "address"
        },
        {
          "indexed": false,
          "name": "loser",
          "type": "address"
        },
        {
          "indexed": false,
          "name": "betAmount",
          "type": "uint256"
        },
        {
          "indexed": false,
          "name": "bonusAmount",
          "type": "uint256"
        },
        {
          "indexed": false,
          "name": "attackerWon",
          "type": "bool"
        }
      ],
      "name": "BattleResult",
      "type": "event"
    },
    {
      "anonymous": false,
      "inputs": [
        {
          "indexed": true,
          "name": "to",
          "type": "address"
        },
        {
          "indexed": false,
          "name": "amount",
          "type": "uint256"
        }
      ],
      "name": "CoinsMinted",
      "type": "event"
    },
    {
      "anonymous": false,
      "inputs": [
        {
          "indexed": true,
          "name": "from",
          "type": "address"
        },
        {
          "indexed": true,
          "name": "to",
          "type": "address"
        },
        {
          "indexed": false,
          "name": "amount",
          "type": "uint256"
        }
      ],
      "name": "CoinsTransferred",
      "type": "event"
    },
    {
      "anonymous": false,
      "inputs": [
        {
          "indexed": true,
          "name": "player",
          "type": "address"
        },
        {
          "indexed": false,
          "name": "amount",
          "type": "uint256"
        }
      ],
      "name": "StarterClaimed",
      "type": "event"
    },
    {
      "anonymous": false,
      "inputs": [
        {
          "indexed": true,
          "name": "player",
          "type": "address"
        },
        {
          "indexed": false,
          "name": "ethSpent",
          "type": "uint256"
        },
        {
          "indexed": false,
          "name": "coinsReceived",
          "type": "uint256"
        }
      ],
      "name": "CoinsPurchased",
      "type": "event"
    },
    {
      "anonymous": false,
      "inputs": [
        {
          "indexed": true,
          "name": "zombieId",
          "type": "uint256"
        },
        {
          "indexed": true,
          "name": "seller",
          "type": "address"
        },
        {
          "indexed": false,
          "name": "price",
          "type": "uint256"
        }
      ],
      "name": "ZombieListed",
      "type": "event"
    },
    {
      "anonymous": false,
      "inputs": [
        {
          "indexed": true,
          "name": "zombieId",
          "type": "uint256"
        },
        {
          "indexed": true,
          "name": "buyer",
          "type": "address"
        },
        {
          "indexed": false,
          "name": "price",
          "type": "uint256"
        }
      ],
      "name": "ZombieSold",
      "type": "event"
    },
    {
      "anonymous": false,
      "inputs": [
        {
          "indexed": true,
          "name": "zombieId",
          "type": "uint256"
        }
      ],
      "name": "ZombieDelisted",
      "type": "event"
    },
    {
      "anonymous": false,
      "inputs": [
        {
          "indexed": true,
          "name": "_from",
          "type": "address"
        },
        {
          "indexed": true,
          "name": "_to",
          "type": "address"
        },
        {
          "indexed": true,
          "name": "_tokenId",
          "type": "uint256"
        }
      ],
      "name": "Transfer",
      "type": "event"
    },
    {
      "anonymous": false,
      "inputs": [
        {
          "indexed": true,
          "name": "_owner",
          "type": "address"
        },
        {
          "indexed": true,
          "name": "_approved",
          "type": "address"
        },
        {
          "indexed": true,
          "name": "_tokenId",
          "type": "uint256"
        }
      ],
      "name": "Approval",
      "type": "event"
    },
    {
      "anonymous": false,
      "inputs": [
        {
          "indexed": false,
          "name": "zombieId",
          "type": "uint256"
        },
        {
          "indexed": false,
          "name": "name",
          "type": "string"
        },
        {
          "indexed": false,
          "name": "dna",
          "type": "uint256"
        }
      ],
      "name": "NewZombie",
      "type": "event"
    },
    {
      "anonymous": false,
      "inputs": [
        {
          "indexed": true,
          "name": "previousOwner",
          "type": "address"
        },
        {
          "indexed": true,
          "name": "newOwner",
          "type": "address"
        }
      ],
      "name": "OwnershipTransferred",
      "type": "event"
    },
    {
      "constant": false,
      "inputs": [
        {
          "name": "_zombieId",
          "type": "uint256"
        },
        {
          "name": "_targetId",
          "type": "uint256"
        },
        {
          "name": "_betAmount",
          "type": "uint256"
        }
      ],
      "name": "attackWithBet",
      "outputs": [],
      "payable": false,
      "stateMutability": "nonpayable",
      "type": "function"
    }
  ],
  "bytecode": "0x60806040526010600155600154600a0a600255600a60035566038d7ea4c680006008556000601d556046601e556040805190810160405280600a81526020017f5a6f6d626965436f696e00000000000000000000000000000000000000000000815250602390805190602001906200007992919062000641565b506040805190810160405280600381526020017f5a4d42000000000000000000000000000000000000000000000000000000000081525060249080519060200190620000c792919062000641565b506000602560006101000a81548160ff021916908360ff160217905550336000806101000a81548173ffffffffffffffffffffffffffffffffffffffff021916908373ffffffffffffffffffffffffffffffffffffffff1602179055506000809054906101000a900473ffffffffffffffffffffffffffffffffffffffff1673ffffffffffffffffffffffffffffffffffffffff16600073ffffffffffffffffffffffffffffffffffffffff167f8be0079c531659141344cd1fd0a4f28419497f9722a3daafe3b4186f6b6457e060405160405180910390a37f446561746800000000000000000000000000000000000000000000000000000060096000600a81101515620001d257fe5b0181600019169055507f536861646f77000000000000000000000000000000000000000000000000000060096001600a811015156200020d57fe5b0181600019169055507f426c6f6f6400000000000000000000000000000000000000000000000000000060096002600a811015156200024857fe5b0181600019169055507f477261766500000000000000000000000000000000000000000000000000000060096003600a811015156200028357fe5b0181600019169055507f536b756c6c00000000000000000000000000000000000000000000000000000060096004600a81101515620002be57fe5b0181600019169055507f426f6e650000000000000000000000000000000000000000000000000000000060096005600a81101515620002f957fe5b0181600019169055507f546f78696300000000000000000000000000000000000000000000000000000060096006600a811015156200033457fe5b0181600019169055507f56656e6f6d00000000000000000000000000000000000000000000000000000060096007600a811015156200036f57fe5b0181600019169055507f4461726b0000000000000000000000000000000000000000000000000000000060096008600a81101515620003aa57fe5b0181600019169055507f526f7474656e0000000000000000000000000000000000000000000000000000600980600a81101515620003e457fe5b0181600019169055507f57616c6b6572000000000000000000000000000000000000000000000000000060136000600a811015156200041f57fe5b0181600019169055507f437275736865720000000000000000000000000000000000000000000000000060136001600a811015156200045a57fe5b0181600019169055507f5374616c6b65720000000000000000000000000000000000000000000000000060136002600a811015156200049557fe5b0181600019169055507f466565646572000000000000000000000000000000000000000000000000000060136003600a81101515620004d057fe5b0181600019169055507f476e61776572000000000000000000000000000000000000000000000000000060136004600a811015156200050b57fe5b0181600019169055507f526970706572000000000000000000000000000000000000000000000000000060136005600a811015156200054657fe5b0181600019169055507f4c75726b6572000000000000000000000000000000000000000000000000000060136006600a811015156200058157fe5b0181600019169055507f426974657200000000000000000000000000000000000000000000000000000060136007600a81101515620005bc57fe5b0181600019169055507f4d61756c6572000000000000000000000000000000000000000000000000000060136008600a81101515620005f757fe5b0181600019169055507f526176616765720000000000000000000000000000000000000000000000000060136009600a811015156200063257fe5b018160001916905550620006f0565b828054600181600116156101000203166002900490600052602060002090601f016020900481019282601f106200068457805160ff1916838001178555620006b5565b82800160010185558215620006b5579182015b82811115620006b457825182559160200191906001019062000697565b5b509050620006c49190620006c8565b5090565b620006ed91905b80821115620006e9576000816000905550600101620006cf565b5090565b90565b614e9e80620007006000396000f300608060405260043610610225576000357c0100000000000000000000000000000000000000000000000000000000900463ffffffff16806306fdde031461022a578063095ea7b3146102ba5780630ce90ec2146102fa5780630e8c9c931461031a57806310152cf81461035f57806315e07c97146103a057806317a7f4cc146103cd57806318160ddd146104045780632052465e1461042f57806323b872dd14610520578063313ce5671461058057806334e1e0f9146105b15780633766bd1d146106085780633a6f6b38146106335780633ccfd60b1461065e5780634412e1041461067557806347ee29921461070d5780634a8be1f814610738578063528b7b8f146107935780635f4623f1146108005780635faf2880146108435780636352211e1461087a5780636540742f146108e75780636f323cb91461091257806370a082311461093d578063715018a6146109945780637bff0a01146109ab57806387c35bc014610a1457806387ed92d714610a805780638d6f455414610aab5780638da5cb5b14610aec5780638db7eefe14610b435780638f32d59b14610b9e57806395d89b4114610bcd5780639a777d5d14610c5d578063b5a742e514610c67578063b92e2d7414610cbe578063c39cbef114610cde578063ccf670f814610d23578063cf4af63614610d50578063de74e57b14610d7b578063e1fa763814610e01578063e7f6f15d14610e38578063ecc0d22414610e6f578063f2fde38b14610e86575b600080fd5b34801561023657600080fd5b5061023f610ec9565b6040518080602001828103825283818151815260200191508051906020019080838360005b8381101561027f578082015181840152602081019050610264565b50505050905090810190601f1680156102ac5780820380516001836020036101000a031916815260200191505b509250505060405180910390f35b6102f8600480360381019080803573ffffffffffffffffffffffffffffffffffffffff16906020019092919080359060200190929190505050610f67565b005b61031860048036038101908080359060200190929190505050611087565b005b34801561032657600080fd5b5061034560048036038101908080359060200190929190505050611122565b604051808215151515815260200191505060405180910390f35b34801561036b57600080fd5b5061038a60048036038101908080359060200190929190505050611142565b6040518082815260200191505060405180910390f35b3480156103ac57600080fd5b506103cb6004803603810190808035906020019092919050505061115a565b005b3480156103d957600080fd5b50610402600480360381019080803590602001909291908035906020019092919050505061130c565b005b34801561041057600080fd5b506104196114b5565b6040518082815260200191505060405180910390f35b34801561043b57600080fd5b5061045a600480360381019080803590602001909291905050506114bb565b60405180806020018781526020018663ffffffff1663ffffffff1681526020018563ffffffff1663ffffffff1681526020018461ffff1661ffff1681526020018361ffff1661ffff168152602001828103825288818151815260200191508051906020019080838360005b838110156104e05780820151818401526020810190506104c5565b50505050905090810190601f16801561050d5780820380516001836020036101000a031916815260200191505b5097505050505050505060405180910390f35b61057e600480360381019080803573ffffffffffffffffffffffffffffffffffffffff169060200190929190803573ffffffffffffffffffffffffffffffffffffffff169060200190929190803590602001909291905050506115da565b005b34801561058c57600080fd5b506105956116c0565b604051808260ff1660ff16815260200191505060405180910390f35b3480156105bd57600080fd5b506105f2600480360381019080803573ffffffffffffffffffffffffffffffffffffffff1690602001909291905050506116d3565b6040518082815260200191505060405180910390f35b34801561061457600080fd5b5061061d6116eb565b6040518082815260200191505060405180910390f35b34801561063f57600080fd5b506106486116f6565b6040518082815260200191505060405180910390f35b34801561066a57600080fd5b506106736116fb565b005b34801561068157600080fd5b506106b6600480360381019080803573ffffffffffffffffffffffffffffffffffffffff16906020019092919050505061177b565b6040518080602001828103825283818151815260200191508051906020019060200280838360005b838110156106f95780820151818401526020810190506106de565b505050509050019250505060405180910390f35b34801561071957600080fd5b506107226118ad565b6040518082815260200191505060405180910390f35b34801561074457600080fd5b50610779600480360381019080803573ffffffffffffffffffffffffffffffffffffffff1690602001909291905050506118b3565b604051808215151515815260200191505060405180910390f35b34801561079f57600080fd5b506107be60048036038101908080359060200190929190505050611909565b604051808273ffffffffffffffffffffffffffffffffffffffff1673ffffffffffffffffffffffffffffffffffffffff16815260200191505060405180910390f35b34801561080c57600080fd5b50610841600480360381019080803573ffffffffffffffffffffffffffffffffffffffff16906020019092919050505061193c565b005b34801561084f57600080fd5b506108786004803603810190808035906020019092919080359060200190929190505050611993565b005b34801561088657600080fd5b506108a560048036038101908080359060200190929190505050611a75565b604051808273ffffffffffffffffffffffffffffffffffffffff1673ffffffffffffffffffffffffffffffffffffffff16815260200191505060405180910390f35b3480156108f357600080fd5b506108fc611ab2565b6040518082815260200191505060405180910390f35b34801561091e57600080fd5b50610927611ab7565b6040518082815260200191505060405180910390f35b34801561094957600080fd5b5061097e600480360381019080803573ffffffffffffffffffffffffffffffffffffffff169060200190929190505050611abd565b6040518082815260200191505060405180910390f35b3480156109a057600080fd5b506109a9611b06565b005b3480156109b757600080fd5b50610a12600480360381019080803590602001908201803590602001908080601f0160208091040260200160405190810160405280939291908181526020018383808284378201915050505050509192919290505050611bd8565b005b348015610a2057600080fd5b50610a29611cba565b6040518080602001828103825283818151815260200191508051906020019060200280838360005b83811015610a6c578082015181840152602081019050610a51565b505050509050019250505060405180910390f35b348015610a8c57600080fd5b50610a95611dda565b6040518082815260200191505060405180910390f35b348015610ab757600080fd5b50610aea600480360381019080803590602001909291908035906020019092919080359060200190929190505050611de7565b005b348015610af857600080fd5b50610b016126f0565b604051808273ffffffffffffffffffffffffffffffffffffffff1673ffffffffffffffffffffffffffffffffffffffff16815260200191505060405180910390f35b348015610b4f57600080fd5b50610b84600480360381019080803573ffffffffffffffffffffffffffffffffffffffff169060200190929190505050612719565b604051808215151515815260200191505060405180910390f35b348015610baa57600080fd5b50610bb3612739565b604051808215151515815260200191505060405180910390f35b348015610bd957600080fd5b50610be2612790565b6040518080602001828103825283818151815260200191508051906020019080838360005b83811015610c22578082015181840152602081019050610c07565b50505050905090810190601f168015610c4f5780820380516001836020036101000a031916815260200191505b509250505060405180910390f35b610c6561282e565b005b348015610c7357600080fd5b50610ca8600480360381019080803573ffffffffffffffffffffffffffffffffffffffff1690602001909291905050506129b3565b6040518082815260200191505060405180910390f35b610cdc600480360381019080803590602001909291905050506129fc565b005b348015610cea57600080fd5b50610d2160048036038101908080359060200190929190803590602001908201803590602001919091929391929390505050612e0e565b005b348015610d2f57600080fd5b50610d4e60048036038101908080359060200190929190505050612efc565b005b348015610d5c57600080fd5b50610d65612f19565b6040518082815260200191505060405180910390f35b348015610d8757600080fd5b50610da660048036038101908080359060200190929190505050612f1e565b604051808581526020018473ffffffffffffffffffffffffffffffffffffffff1673ffffffffffffffffffffffffffffffffffffffff1681526020018381526020018215151515815260200194505050505060405180910390f35b348015610e0d57600080fd5b50610e366004803603810190808035906020019092919080359060200190929190505050612f8a565b005b348015610e4457600080fd5b50610e6d600480360381019080803590602001909291908035906020019092919050505061321d565b005b348015610e7b57600080fd5b50610e8461351e565b005b348015610e9257600080fd5b50610ec7600480360381019080803573ffffffffffffffffffffffffffffffffffffffff169060200190929190505050613696565b005b60238054600181600116156101000203166002900480601f016020809104026020016040519081016040528092919081815260200182805460018160011615610100020316600290048015610f5f5780601f10610f3457610100808354040283529160200191610f5f565b820191906000526020600020905b815481529060010190602001808311610f4257829003601f168201915b505050505081565b806005600082815260200190815260200160002060009054906101000a900473ffffffffffffffffffffffffffffffffffffffff1673ffffffffffffffffffffffffffffffffffffffff163373ffffffffffffffffffffffffffffffffffffffff16141515610fd557600080fd5b82601f600084815260200190815260200160002060006101000a81548173ffffffffffffffffffffffffffffffffffffffff021916908373ffffffffffffffffffffffffffffffffffffffff160217905550818373ffffffffffffffffffffffffffffffffffffffff163373ffffffffffffffffffffffffffffffffffffffff167f8c5be1e5ebec7d5bd14f71427d1e84f3dd0314c0f7b2291e5b200ac8c7c3b92560405160405180910390a4505050565b6008543414151561109757600080fd5b6110e160016004838154811015156110ab57fe5b906000526020600020906003020160020160009054906101000a900463ffffffff1663ffffffff166136b590919063ffffffff16565b6004828154811015156110f057fe5b906000526020600020906003020160020160006101000a81548163ffffffff021916908363ffffffff16021790555050565b60226020528060005260406000206000915054906101000a900460ff1681565b60216020528060005260406000206000915090505481565b6000816005600082815260200190815260200160002060009054906101000a900473ffffffffffffffffffffffffffffffffffffffff1673ffffffffffffffffffffffffffffffffffffffff163373ffffffffffffffffffffffffffffffffffffffff161415156111ca57600080fd5b6022600084815260200190815260200160002060009054906101000a900460ff16151561125f576040517f08c379a000000000000000000000000000000000000000000000000000000000815260040180806020018281038252600a8152602001807f4e6f74206c69737465640000000000000000000000000000000000000000000081525060200191505060405180910390fd5b60216000848152602001908152602001600020549150600060208381548110151561128657fe5b906000526020600020906004020160030160006101000a81548160ff02191690831515021790555060006022600085815260200190815260200160002060006101000a81548160ff021916908315150217905550827f8b99877104ce694806d96430327da98a5fc370ed75bb3679b12404dc5e8731aa60405160405180910390a2505050565b6000600760009054906101000a900473ffffffffffffffffffffffffffffffffffffffff1673ffffffffffffffffffffffffffffffffffffffff1663e98b7f4d836040518263ffffffff167c01000000000000000000000000000000000000000000000000000000000281526004018082815260200191505061014060405180830381600087803b1580156113a057600080fd5b505af11580156113b4573d6000803e3d6000fd5b505050506040513d6101408110156113cb57600080fd5b8101908080519060200190929190805190602001909291908051906020019092919080519060200190929190805190602001909291908051906020019092919080519060200190929190805190602001909291908051906020019092919080519060200190929190505050909192939495969798509091929394959697509091929394959650909192939495509091929394509091929350909192509091509050809150506114b083826040805190810160405280600581526020017f6b697474790000000000000000000000000000000000000000000000000000008152506136df565b505050565b60265481565b6004818154811015156114ca57fe5b9060005260206000209060030201600091509050806000018054600181600116156101000203166002900480601f0160208091040260200160405190810160405280929190818152602001828054600181600116156101000203166002900480156115765780601f1061154b57610100808354040283529160200191611576565b820191906000526020600020905b81548152906001019060200180831161155957829003601f168201915b5050505050908060010154908060020160009054906101000a900463ffffffff16908060020160049054906101000a900463ffffffff16908060020160089054906101000a900461ffff169080600201600a9054906101000a900461ffff16905086565b3373ffffffffffffffffffffffffffffffffffffffff166005600083815260200190815260200160002060009054906101000a900473ffffffffffffffffffffffffffffffffffffffff1673ffffffffffffffffffffffffffffffffffffffff1614806116a557503373ffffffffffffffffffffffffffffffffffffffff16601f600083815260200190815260200160002060009054906101000a900473ffffffffffffffffffffffffffffffffffffffff1673ffffffffffffffffffffffffffffffffffffffff16145b15156116b057600080fd5b6116bb838383613965565b505050565b602560009054906101000a900460ff1681565b60276020528060005260406000206000915090505481565b662386f26fc1000081565b606481565b6000611705612739565b151561171057600080fd5b6117186126f0565b90508073ffffffffffffffffffffffffffffffffffffffff166108fc3073ffffffffffffffffffffffffffffffffffffffff16319081150290604051600060405180830381858888f19350505050158015611777573d6000803e3d6000fd5b5050565b606080600080600660008673ffffffffffffffffffffffffffffffffffffffff1673ffffffffffffffffffffffffffffffffffffffff168152602001908152602001600020546040519080825280602002602001820160405280156117ef5781602001602082028038833980820191505090505b50925060009150600090505b6004805490508110156118a2578473ffffffffffffffffffffffffffffffffffffffff166005600083815260200190815260200160002060009054906101000a900473ffffffffffffffffffffffffffffffffffffffff1673ffffffffffffffffffffffffffffffffffffffff1614156118955780838381518110151561187e57fe5b906020019060200201818152505081806001019250505b80806001019150506117fb565b829350505050919050565b61271081565b6000602860008373ffffffffffffffffffffffffffffffffffffffff1673ffffffffffffffffffffffffffffffffffffffff16815260200190815260200160002060009054906101000a900460ff169050919050565b60056020528060005260406000206000915054906101000a900473ffffffffffffffffffffffffffffffffffffffff1681565b611944612739565b151561194f57600080fd5b80600760006101000a81548173ffffffffffffffffffffffffffffffffffffffff021916908373ffffffffffffffffffffffffffffffffffffffff16021790555050565b601482816004828154811015156119a657fe5b906000526020600020906003020160020160009054906101000a900463ffffffff1663ffffffff16101515156119db57600080fd5b836005600082815260200190815260200160002060009054906101000a900473ffffffffffffffffffffffffffffffffffffffff1673ffffffffffffffffffffffffffffffffffffffff163373ffffffffffffffffffffffffffffffffffffffff16141515611a4957600080fd5b83600486815481101515611a5957fe5b9060005260206000209060030201600101819055505050505050565b60006005600083815260200190815260200160002060009054906101000a900473ffffffffffffffffffffffffffffffffffffffff169050919050565b606481565b6101f481565b6000600660008373ffffffffffffffffffffffffffffffffffffffff1673ffffffffffffffffffffffffffffffffffffffff168152602001908152602001600020549050919050565b611b0e612739565b1515611b1957600080fd5b600073ffffffffffffffffffffffffffffffffffffffff166000809054906101000a900473ffffffffffffffffffffffffffffffffffffffff1673ffffffffffffffffffffffffffffffffffffffff167f8be0079c531659141344cd1fd0a4f28419497f9722a3daafe3b4186f6b6457e060405160405180910390a360008060006101000a81548173ffffffffffffffffffffffffffffffffffffffff021916908373ffffffffffffffffffffffffffffffffffffffff160217905550565b600080600660003373ffffffffffffffffffffffffffffffffffffffff1673ffffffffffffffffffffffffffffffffffffffff16815260200190815260200160002054141515611c90576040517f08c379a00000000000000000000000000000000000000000000000000000000081526004018080602001828103825260188152602001807f596f7520616c7265616479206f776e2061207a6f6d626965000000000000000081525060200191505060405180910390fd5b611c9982613b43565b9050606481811515611ca757fe5b0681039050611cb68282613c31565b5050565b6060600080606060008060009450600093505b602080549050841015611d2357602084815481101515611ce957fe5b906000526020600020906004020160030160009054906101000a900460ff1615611d165784806001019550505b8380600101945050611ccd565b84604051908082528060200260200182016040528015611d525781602001602082028038833980820191505090505b50925060009150600090505b602080549050811015611dcf57602081815481101515611d7a57fe5b906000526020600020906004020160030160009054906101000a900460ff1615611dc257808383806001019450815181101515611db357fe5b90602001906020020181815250505b8080600101915050611d5e565b829550505050505090565b6000602080549050905090565b600080600080600080886005600082815260200190815260200160002060009054906101000a900473ffffffffffffffffffffffffffffffffffffffff1673ffffffffffffffffffffffffffffffffffffffff163373ffffffffffffffffffffffffffffffffffffffff16141515611e5e57600080fd5b60648810151515611ed7576040517f08c379a00000000000000000000000000000000000000000000000000000000081526004018080602001828103825260168152602001807f4d696e696d756d2062657420697320313030205a4d420000000000000000000081525060200191505060405180910390fd5b87602760003373ffffffffffffffffffffffffffffffffffffffff1673ffffffffffffffffffffffffffffffffffffffff1681526020019081526020016000205410151515611fb4576040517f08c379a00000000000000000000000000000000000000000000000000000000081526004018080602001828103825260238152602001807f496e73756666696369656e74205a4d4220e2809420627579206d6f726520636f81526020017f696e73000000000000000000000000000000000000000000000000000000000081525060400191505060405180910390fd5b60048a815481101515611fc357fe5b90600052602060002090600302019650600489815481101515611fe257fe5b90600052602060002090600302019550600560008a815260200190815260200160002060009054906101000a900473ffffffffffffffffffffffffffffffffffffffff16945061203187613f04565b15156120a5576040517f08c379a00000000000000000000000000000000000000000000000000000000081526004018080602001828103825260158152602001807f5a6f6d626965206973206f6e20636f6f6c646f776e000000000000000000000081525060200191505060405180910390fd5b6120f788602760003373ffffffffffffffffffffffffffffffffffffffff1673ffffffffffffffffffffffffffffffffffffffff16815260200190815260200160002054613f2b90919063ffffffff16565b602760003373ffffffffffffffffffffffffffffffffffffffff1673ffffffffffffffffffffffffffffffffffffffff168152602001908152602001600020819055506121446064613f44565b935060468410925082156124ff5761217c60018860020160089054906101000a900461ffff1661ffff1661404790919063ffffffff16565b8760020160086101000a81548161ffff021916908361ffff1602179055506121c860018860020160009054906101000a900463ffffffff1663ffffffff166136b590919063ffffffff16565b8760020160006101000a81548163ffffffff021916908363ffffffff160217905550612214600187600201600a9054906101000a900461ffff1661ffff1661404790919063ffffffff16565b86600201600a6101000a81548161ffff021916908361ffff16021790555061224660648961406d90919063ffffffff16565b915087602760008773ffffffffffffffffffffffffffffffffffffffff1673ffffffffffffffffffffffffffffffffffffffff1681526020019081526020016000205410151561234e576122e288602760008873ffffffffffffffffffffffffffffffffffffffff1673ffffffffffffffffffffffffffffffffffffffff16815260200190815260200160002054613f2b90919063ffffffff16565b602760008773ffffffffffffffffffffffffffffffffffffffff1673ffffffffffffffffffffffffffffffffffffffff1681526020019081526020016000208190555061234b606461233d8a8b61406d90919063ffffffff16565b61406d90919063ffffffff16565b91505b6123a082602760003373ffffffffffffffffffffffffffffffffffffffff1673ffffffffffffffffffffffffffffffffffffffff1681526020019081526020016000205461406d90919063ffffffff16565b602760003373ffffffffffffffffffffffffffffffffffffffff1673ffffffffffffffffffffffffffffffffffffffff168152602001908152602001600020819055506123f9606460265461406d90919063ffffffff16565b6026819055506124438a87600101546040805190810160405280600681526020017f7a6f6d62696500000000000000000000000000000000000000000000000000008152506136df565b888a7f523a559ce8dbd98c9dbd5c7a932eb515bdf378713efd3e9becca247b15e1eb3933888c60646001604051808673ffffffffffffffffffffffffffffffffffffffff1673ffffffffffffffffffffffffffffffffffffffff1681526020018573ffffffffffffffffffffffffffffffffffffffff1673ffffffffffffffffffffffffffffffffffffffff168152602001848152602001838152602001821515151581526020019550505050505060405180910390a36126e4565b612529600188600201600a9054906101000a900461ffff1661ffff1661404790919063ffffffff16565b87600201600a6101000a81548161ffff021916908361ffff16021790555061257160018760020160089054906101000a900461ffff1661ffff1661404790919063ffffffff16565b8660020160086101000a81548161ffff021916908361ffff1602179055506125988761408b565b6125ea88602760008873ffffffffffffffffffffffffffffffffffffffff1673ffffffffffffffffffffffffffffffffffffffff1681526020019081526020016000205461406d90919063ffffffff16565b602760008773ffffffffffffffffffffffffffffffffffffffff1673ffffffffffffffffffffffffffffffffffffffff16815260200190815260200160002081905550888a7f523a559ce8dbd98c9dbd5c7a932eb515bdf378713efd3e9becca247b15e1eb3987338c600080604051808673ffffffffffffffffffffffffffffffffffffffff1673ffffffffffffffffffffffffffffffffffffffff1681526020018573ffffffffffffffffffffffffffffffffffffffff1673ffffffffffffffffffffffffffffffffffffffff168152602001848152602001838152602001821515151581526020019550505050505060405180910390a35b50505050505050505050565b60008060009054906101000a900473ffffffffffffffffffffffffffffffffffffffff16905090565b60286020528060005260406000206000915054906101000a900460ff1681565b60008060009054906101000a900473ffffffffffffffffffffffffffffffffffffffff1673ffffffffffffffffffffffffffffffffffffffff163373ffffffffffffffffffffffffffffffffffffffff1614905090565b60248054600181600116156101000203166002900480601f0160208091040260200160405190810160405280929190818152602001828054600181600116156101000203166002900480156128265780601f106127fb57610100808354040283529160200191612826565b820191906000526020600020905b81548152906001019060200180831161280957829003601f168201915b505050505081565b6000806000662386f26fc1000034101515156128b2576040517f08c379a00000000000000000000000000000000000000000000000000000000081526004018080602001828103825260168152602001807f53656e64206174206c6561737420302e3031204554480000000000000000000081525060200191505060405180910390fd5b662386f26fc10000348115156128c457fe5b0492506128db6064846140b590919063ffffffff16565b91506128f7662386f26fc10000846140b590919063ffffffff16565b3403905061290533836140f0565b6000811115612956573373ffffffffffffffffffffffffffffffffffffffff166108fc829081150290604051600060405180830381858888f19350505050158015612954573d6000803e3d6000fd5b505b3373ffffffffffffffffffffffffffffffffffffffff167fe42c627940ae035b15bcb45ba29d47ff8b9716b27a4b993b5513d8c0516dc1ed82340384604051808381526020018281526020019250505060405180910390a2505050565b6000602760008373ffffffffffffffffffffffffffffffffffffffff1673ffffffffffffffffffffffffffffffffffffffff168152602001908152602001600020549050919050565b60008060006022600085815260200190815260200160002060009054906101000a900460ff161515612a96576040517f08c379a000000000000000000000000000000000000000000000000000000000815260040180806020018281038252600a8152602001807f4e6f74206c69737465640000000000000000000000000000000000000000000081525060200191505060405180910390fd5b60216000858152602001908152602001600020549250602083815481101515612abb57fe5b906000526020600020906004020191508160030160009054906101000a900460ff161515612b51576040517f08c379a00000000000000000000000000000000000000000000000000000000081526004018080602001828103825260128152602001807f4c697374696e67206e6f7420616374697665000000000000000000000000000081525060200191505060405180910390fd5b8160010160009054906101000a900473ffffffffffffffffffffffffffffffffffffffff1673ffffffffffffffffffffffffffffffffffffffff163373ffffffffffffffffffffffffffffffffffffffff1614151515612c19576040517f08c379a000000000000000000000000000000000000000000000000000000000815260040180806020018281038252601a8152602001807f43616e6e6f742062757920796f7572206f776e207a6f6d62696500000000000081525060200191505060405180910390fd5b81600201543410151515612c95576040517f08c379a00000000000000000000000000000000000000000000000000000000081526004018080602001828103825260108152602001807f496e73756666696369656e74204554480000000000000000000000000000000081525060200191505060405180910390fd5b60008260030160006101000a81548160ff02191690831515021790555060006022600086815260200190815260200160002060006101000a81548160ff0219169083151502179055508160010160009054906101000a900473ffffffffffffffffffffffffffffffffffffffff169050612d10813386613965565b8073ffffffffffffffffffffffffffffffffffffffff166108fc83600201549081150290604051600060405180830381858888f19350505050158015612d5a573d6000803e3d6000fd5b508160020154341115612db5573373ffffffffffffffffffffffffffffffffffffffff166108fc836002015434039081150290604051600060405180830381858888f19350505050158015612db3573d6000803e3d6000fd5b505b3373ffffffffffffffffffffffffffffffffffffffff16847f9879d7db6c40b074f2e4c624cae4596f488405684f85f3885be42fd14a48004c84600201546040518082815260200191505060405180910390a350505050565b60028381600482815481101515612e2157fe5b906000526020600020906003020160020160009054906101000a900463ffffffff1663ffffffff1610151515612e5657600080fd5b846005600082815260200190815260200160002060009054906101000a900473ffffffffffffffffffffffffffffffffffffffff1673ffffffffffffffffffffffffffffffffffffffff163373ffffffffffffffffffffffffffffffffffffffff16141515612ec457600080fd5b8484600488815481101515612ed557fe5b90600052602060002090600302016000019190612ef3929190614d29565b50505050505050565b612f04612739565b1515612f0f57600080fd5b8060088190555050565b606481565b602081815481101515612f2d57fe5b90600052602060002090600402016000915090508060000154908060010160009054906101000a900473ffffffffffffffffffffffffffffffffffffffff16908060020154908060030160009054906101000a900460ff16905084565b6000806000846005600082815260200190815260200160002060009054906101000a900473ffffffffffffffffffffffffffffffffffffffff1673ffffffffffffffffffffffffffffffffffffffff163373ffffffffffffffffffffffffffffffffffffffff16141515612ffd57600080fd5b60048681548110151561300c57fe5b9060005260206000209060030201935060048581548110151561302b57fe5b9060005260206000209060030201925061304560646141f2565b9150601e548211151561317b5761307c60018560020160089054906101000a900461ffff1661ffff1661404790919063ffffffff16565b8460020160086101000a81548161ffff021916908361ffff1602179055506130c860018560020160009054906101000a900463ffffffff1663ffffffff166136b590919063ffffffff16565b8460020160006101000a81548163ffffffff021916908363ffffffff160217905550613114600184600201600a9054906101000a900461ffff1661ffff1661404790919063ffffffff16565b83600201600a6101000a81548161ffff021916908361ffff1602179055506131768684600101546040805190810160405280600681526020017f7a6f6d62696500000000000000000000000000000000000000000000000000008152506136df565b613215565b6131a5600185600201600a9054906101000a900461ffff1661ffff1661404790919063ffffffff16565b84600201600a6101000a81548161ffff021916908361ffff1602179055506131ed60018460020160089054906101000a900461ffff1661ffff1661404790919063ffffffff16565b8360020160086101000a81548161ffff021916908361ffff1602179055506132148461408b565b5b505050505050565b6000826005600082815260200190815260200160002060009054906101000a900473ffffffffffffffffffffffffffffffffffffffff1673ffffffffffffffffffffffffffffffffffffffff163373ffffffffffffffffffffffffffffffffffffffff1614151561328d57600080fd5b600083111515613305576040517f08c379a00000000000000000000000000000000000000000000000000000000081526004018080602001828103825260118152602001807f5072696365206d757374206265203e203000000000000000000000000000000081525060200191505060405180910390fd5b6022600085815260200190815260200160002060009054906101000a900460ff1615151561339b576040517f08c379a000000000000000000000000000000000000000000000000000000000815260040180806020018281038252600e8152602001807f416c7265616479206c697374656400000000000000000000000000000000000081525060200191505060405180910390fd5b600160206080604051908101604052808781526020013373ffffffffffffffffffffffffffffffffffffffff16815260200186815260200160011515815250908060018154018082558091505090600182039060005260206000209060040201600090919290919091506000820151816000015560208201518160010160006101000a81548173ffffffffffffffffffffffffffffffffffffffff021916908373ffffffffffffffffffffffffffffffffffffffff1602179055506040820151816002015560608201518160030160006101000a81548160ff021916908315150217905550505003915081602160008681526020019081526020016000208190555060016022600086815260200190815260200160002060006101000a81548160ff0219169083151502179055503373ffffffffffffffffffffffffffffffffffffffff16847f76cafae57ae500024885b2b2ecd0d194cb1b22f2958c905059207be8d60a4e5e856040518082815260200191505060405180910390a350505050565b602860003373ffffffffffffffffffffffffffffffffffffffff1673ffffffffffffffffffffffffffffffffffffffff16815260200190815260200160002060009054906101000a900460ff161515156135e0576040517f08c379a000000000000000000000000000000000000000000000000000000000815260040180806020018281038252601d8152602001807f416c726561647920636c61696d6564207374617274657220636f696e7300000081525060200191505060405180910390fd5b6001602860003373ffffffffffffffffffffffffffffffffffffffff1673ffffffffffffffffffffffffffffffffffffffff16815260200190815260200160002060006101000a81548160ff021916908315150217905550613644336101f46140f0565b3373ffffffffffffffffffffffffffffffffffffffff167f52dde3b6ac4d2c94b2e878aaf033c38945dcaf805d7cb55ab344702151abd2326101f46040518082815260200191505060405180910390a2565b61369e612739565b15156136a957600080fd5b6136b2816142f5565b50565b60008082840190508363ffffffff168163ffffffff16101515156136d557fe5b8091505092915050565b6000806060856005600082815260200190815260200160002060009054906101000a900473ffffffffffffffffffffffffffffffffffffffff1673ffffffffffffffffffffffffffffffffffffffff163373ffffffffffffffffffffffffffffffffffffffff1614151561375257600080fd5b60048781548110151561376157fe5b9060005260206000209060030201935061377a84613f04565b151561378557600080fd5b6002548681151561379257fe5b0695506002868560010154018115156137a757fe5b04925060405160200180807f6b6974747900000000000000000000000000000000000000000000000000000081525060050190506040516020818303038152906040526040518082805190602001908083835b60208310151561381f57805182526020820191506020810190506020830392506137fa565b6001836020036101000a038019825116818451168082178552505050505050905001915050604051809103902060001916856040516020018082805190602001908083835b6020831015156138895780518252602082019150602081019050602083039250613864565b6001836020036101000a0380198251168184511680821785525050505050509050019150506040516020818303038152906040526040518082805190602001908083835b6020831015156138f257805182526020820191506020810190506020830392506138cd565b6001836020036101000a038019825116818451168082178552505050505050905001915050604051809103902060001916141561393e57606360648481151561393757fe5b0684030192505b613947836143ef565b91506139538284613c31565b61395c8461408b565b50505050505050565b6139b86001600660008573ffffffffffffffffffffffffffffffffffffffff1673ffffffffffffffffffffffffffffffffffffffff1681526020019081526020016000205461406d90919063ffffffff16565b600660008473ffffffffffffffffffffffffffffffffffffffff1673ffffffffffffffffffffffffffffffffffffffff16815260200190815260200160002081905550613a4e6001600660008673ffffffffffffffffffffffffffffffffffffffff1673ffffffffffffffffffffffffffffffffffffffff16815260200190815260200160002054613f2b90919063ffffffff16565b600660008573ffffffffffffffffffffffffffffffffffffffff1673ffffffffffffffffffffffffffffffffffffffff16815260200190815260200160002081905550816005600083815260200190815260200160002060006101000a81548173ffffffffffffffffffffffffffffffffffffffff021916908373ffffffffffffffffffffffffffffffffffffffff160217905550808273ffffffffffffffffffffffffffffffffffffffff168473ffffffffffffffffffffffffffffffffffffffff167fddf252ad1be2c89b69c2b068fc378daa952ba7f163c4a11628f55a4df523b3ef60405160405180910390a4505050565b600080826040516020018082805190602001908083835b602083101515613b7f5780518252602082019150602081019050602083039250613b5a565b6001836020036101000a0380198251168184511680821785525050505050509050019150506040516020818303038152906040526040518082805190602001908083835b602083101515613be85780518252602082019150602081019050602083039250613bc3565b6001836020036101000a038019825116818451168082178552505050505050905001915050604051809103902060019004905060025481811515613c2857fe5b06915050919050565b60006001600460c060405190810160405280868152602001858152602001600163ffffffff168152602001600354420163ffffffff168152602001600061ffff168152602001600061ffff16815250908060018154018082558091505090600182039060005260206000209060030201600090919290919091506000820151816000019080519060200190613cc7929190614da9565b506020820151816001015560408201518160020160006101000a81548163ffffffff021916908363ffffffff16021790555060608201518160020160046101000a81548163ffffffff021916908363ffffffff16021790555060808201518160020160086101000a81548161ffff021916908361ffff16021790555060a082015181600201600a6101000a81548161ffff021916908361ffff1602179055505050039050336005600083815260200190815260200160002060006101000a81548173ffffffffffffffffffffffffffffffffffffffff021916908373ffffffffffffffffffffffffffffffffffffffff160217905550613e106001600660003373ffffffffffffffffffffffffffffffffffffffff1673ffffffffffffffffffffffffffffffffffffffff1681526020019081526020016000205461406d90919063ffffffff16565b600660003373ffffffffffffffffffffffffffffffffffffffff1673ffffffffffffffffffffffffffffffffffffffff168152602001908152602001600020819055507f88f026aacbbecc90c18411df4b1185fd8d9be2470f1962f192bf84a27d0704b78184846040518084815260200180602001838152602001828103825284818151815260200191508051906020019080838360005b83811015613ec3578082015181840152602081019050613ea8565b50505050905090810190601f168015613ef05780820380516001836020036101000a031916815260200191505b5094505050505060405180910390a1505050565b6000428260020160049054906101000a900463ffffffff1663ffffffff1611159050919050565b6000828211151515613f3957fe5b818303905092915050565b6000613f5c6001601d5461406d90919063ffffffff16565b601d81905550814233601d54604051602001808481526020018373ffffffffffffffffffffffffffffffffffffffff1673ffffffffffffffffffffffffffffffffffffffff166c0100000000000000000000000002815260140182815260200193505050506040516020818303038152906040526040518082805190602001908083835b6020831015156140055780518252602082019150602081019050602083039250613fe0565b6001836020036101000a03801982511681845116808217855250505050505090500191505060405180910390206001900481151561403f57fe5b069050919050565b60008082840190508361ffff168161ffff161015151561406357fe5b8091505092915050565b600080828401905083811015151561408157fe5b8091505092915050565b60035442018160020160046101000a81548163ffffffff021916908363ffffffff16021790555050565b60008060008414156140ca57600091506140e9565b82840290508284828115156140db57fe5b041415156140e557fe5b8091505b5092915050565b61414281602760008573ffffffffffffffffffffffffffffffffffffffff1673ffffffffffffffffffffffffffffffffffffffff1681526020019081526020016000205461406d90919063ffffffff16565b602760008473ffffffffffffffffffffffffffffffffffffffff1673ffffffffffffffffffffffffffffffffffffffff1681526020019081526020016000208190555061419a8160265461406d90919063ffffffff16565b6026819055508173ffffffffffffffffffffffffffffffffffffffff167fc9ac6f335722ba5012b311e37c325450961c6e224ea391135b78d95118e190c9826040518082815260200191505060405180910390a25050565b600061420a6001601d5461406d90919063ffffffff16565b601d81905550814233601d54604051602001808481526020018373ffffffffffffffffffffffffffffffffffffffff1673ffffffffffffffffffffffffffffffffffffffff166c0100000000000000000000000002815260140182815260200193505050506040516020818303038152906040526040518082805190602001908083835b6020831015156142b3578051825260208201915060208101905060208303925061428e565b6001836020036101000a0380198251168184511680821785525050505050509050019150506040518091039020600190048115156142ed57fe5b069050919050565b600073ffffffffffffffffffffffffffffffffffffffff168173ffffffffffffffffffffffffffffffffffffffff161415151561433157600080fd5b8073ffffffffffffffffffffffffffffffffffffffff166000809054906101000a900473ffffffffffffffffffffffffffffffffffffffff1673ffffffffffffffffffffffffffffffffffffffff167f8be0079c531659141344cd1fd0a4f28419497f9722a3daafe3b4186f6b6457e060405160405180910390a3806000806101000a81548173ffffffffffffffffffffffffffffffffffffffff021916908373ffffffffffffffffffffffffffffffffffffffff16021790555050565b60606143f9614e29565b614401614e29565b600080606080606060008060007f536861646f7700000000000000000000000000000000000000000000000000008a600060088110151561443e57fe5b602002019060001916908160001916815250507f426c6f6f640000000000000000000000000000000000000000000000000000008a600160088110151561448157fe5b602002019060001916908160001916815250507f47726176650000000000000000000000000000000000000000000000000000008a60026008811015156144c457fe5b602002019060001916908160001916815250507f536b756c6c0000000000000000000000000000000000000000000000000000008a600360088110151561450757fe5b602002019060001916908160001916815250507f546f7869630000000000000000000000000000000000000000000000000000008a600460088110151561454a57fe5b602002019060001916908160001916815250507f56656e6f6d0000000000000000000000000000000000000000000000000000008a600560088110151561458d57fe5b602002019060001916908160001916815250507f526f7474656e00000000000000000000000000000000000000000000000000008a60066008811015156145d057fe5b602002019060001916908160001916815250507f44656174680000000000000000000000000000000000000000000000000000008a600760088110151561461357fe5b602002019060001916908160001916815250507f57616c6b6572000000000000000000000000000000000000000000000000000089600060088110151561465657fe5b602002019060001916908160001916815250507f526970706572000000000000000000000000000000000000000000000000000089600160088110151561469957fe5b602002019060001916908160001916815250507f476e6177657200000000000000000000000000000000000000000000000000008960026008811015156146dc57fe5b602002019060001916908160001916815250507f466565646572000000000000000000000000000000000000000000000000000089600360088110151561471f57fe5b602002019060001916908160001916815250507f426974657200000000000000000000000000000000000000000000000000000089600460088110151561476257fe5b602002019060001916908160001916815250507f4c75726b657200000000000000000000000000000000000000000000000000008960056008811015156147a557fe5b602002019060001916908160001916815250507f4d61756c657200000000000000000000000000000000000000000000000000008960066008811015156147e857fe5b602002019060001916908160001916815250507f526176616765720000000000000000000000000000000000000000000000000089600760088110151561482b57fe5b60200201906000191690816000191681525050600864e8d4a510008d81151561485057fe5b0481151561485a57fe5b069750600864174876e8008d81151561486f57fe5b0481151561487957fe5b0696506148978a8960088110151561488d57fe5b6020020151614ade565b95506148b489886008811015156148aa57fe5b6020020151614ade565b945084516001875101016040519080825280601f01601f1916602001820160405280156148f05781602001602082028038833980820191505090505b50935060009250600091505b85518210156149af57858281518110151561491357fe5b9060200101517f010000000000000000000000000000000000000000000000000000000000000090047f010000000000000000000000000000000000000000000000000000000000000002848480600101955081518110151561497257fe5b9060200101907effffffffffffffffffffffffffffffffffffffffffffffffffffffffffffff1916908160001a90535081806001019250506148fc565b7f200000000000000000000000000000000000000000000000000000000000000084848060010195508151811015156149e457fe5b9060200101907effffffffffffffffffffffffffffffffffffffffffffffffffffffffffffff1916908160001a905350600090505b8451811015614acc578481815181101515614a3057fe5b9060200101517f010000000000000000000000000000000000000000000000000000000000000090047f0100000000000000000000000000000000000000000000000000000000000000028484806001019550815181101515614a8f57fe5b9060200101907effffffffffffffffffffffffffffffffffffffffffffffffffffffffffffff1916908160001a9053508080600101915050614a19565b839a5050505050505050505050919050565b6060806000806060600060206040519080825280601f01601f191660200182016040528015614b1c5781602001602082028038833980820191505090505b50945060009350600092505b6020831015614c355760007f0100000000000000000000000000000000000000000000000000000000000000028784602081101515614b6357fe5b1a7f0100000000000000000000000000000000000000000000000000000000000000027effffffffffffffffffffffffffffffffffffffffffffffffffffffffffffff19161415614bb357614c35565b8683602081101515614bc157fe5b1a7f0100000000000000000000000000000000000000000000000000000000000000028585806001019650815181101515614bf857fe5b9060200101907effffffffffffffffffffffffffffffffffffffffffffffffffffffffffffff1916908160001a9053508280600101935050614b28565b836040519080825280601f01601f191660200182016040528015614c685781602001602082028038833980820191505090505b509150600090505b83811015614d1c578481815181101515614c8657fe5b9060200101517f010000000000000000000000000000000000000000000000000000000000000090047f0100000000000000000000000000000000000000000000000000000000000000028282815181101515614cdf57fe5b9060200101907effffffffffffffffffffffffffffffffffffffffffffffffffffffffffffff1916908160001a9053508080600101915050614c70565b8195505050505050919050565b828054600181600116156101000203166002900490600052602060002090601f016020900481019282601f10614d6a57803560ff1916838001178555614d98565b82800160010185558215614d98579182015b82811115614d97578235825591602001919060010190614d7c565b5b509050614da59190614e4d565b5090565b828054600181600116156101000203166002900490600052602060002090601f016020900481019282601f10614dea57805160ff1916838001178555614e18565b82800160010185558215614e18579182015b82811115614e17578251825591602001919060010190614dfc565b5b509050614e259190614e4d565b5090565b61010060405190810160405280600890602082028038833980820191505090505090565b614e6f91905b80821115614e6b576000816000905550600101614e53565b5090565b905600a165627a7a72305820d2749cfc79e69634137498d68900196575280e3ac98ee74bd2b1471d5e1d9e420029",
  "source": "pragma solidity ^0.4.25;\n\nimport \"./ZombieMarketplace.sol\";\nimport \"./ZombieCoin.sol\";\n\ncontract ZombieBattle is ZombieMarketplace, ZombieCoin {\n\n    event BattleResult(\n        uint256 indexed attackerId,\n        uint256 indexed targetId,\n        address winner,\n        address loser,\n        uint256 betAmount,\n        uint256 bonusAmount,\n        bool    attackerWon\n    );\n\n    function attackWithBet(\n        uint256 _zombieId,\n        uint256 _targetId,\n        uint256 _betAmount\n    ) external onlyOwnerOf(_zombieId) {\n        require(_betAmount >= MIN_BET,              \"Minimum bet is 100 ZMB\");\n        require(zombieCoins[msg.sender] >= _betAmount, \"Insufficient ZMB — buy more coins\");\n\n        Zombie storage myZombie     = zombies[_zombieId];\n        Zombie storage enemyZombie  = zombies[_targetId];\n        address enemyOwner          = zombieToOwner[_targetId];\n\n        require(_isReady(myZombie), \"Zombie is on cooldown\");\n\n        // Lock attacker coins\n        zombieCoins[msg.sender] = zombieCoins[msg.sender].sub(_betAmount);\n\n        // Battle logic (same 70% win rate)\n        uint256 rand = _randMod(100);\n        bool attackerWon = rand < 70;\n\n        if (attackerWon) {\n            // Attacker wins: gets bet back + enemy's equivalent + bonus\n            myZombie.winCount   = myZombie.winCount.add(1);\n            myZombie.level      = myZombie.level.add(1);\n            enemyZombie.lossCount = enemyZombie.lossCount.add(1);\n\n            uint256 reward = _betAmount.add(WIN_BONUS);\n            // Take bet from enemy if they have enough, else just give bonus\n            if (zombieCoins[enemyOwner] >= _betAmount) {\n                zombieCoins[enemyOwner] = zombieCoins[enemyOwner].sub(_betAmount);\n                reward = _betAmount.add(_betAmount).add(WIN_BONUS);\n            }\n            zombieCoins[msg.sender] = zombieCoins[msg.sender].add(reward);\n            totalSupply = totalSupply.add(WIN_BONUS);\n\n            feedAndMultiply(_zombieId, enemyZombie.dna, \"zombie\");\n\n            emit BattleResult(_zombieId, _targetId, msg.sender, enemyOwner, _betAmount, WIN_BONUS, true);\n        } else {\n            // Attacker loses: enemy gets the bet\n            myZombie.lossCount    = myZombie.lossCount.add(1);\n            enemyZombie.winCount  = enemyZombie.winCount.add(1);\n            _triggerCooldown(myZombie);\n\n            zombieCoins[enemyOwner] = zombieCoins[enemyOwner].add(_betAmount);\n\n            emit BattleResult(_zombieId, _targetId, enemyOwner, msg.sender, _betAmount, 0, false);\n        }\n    }\n\n    function _randMod(uint256 _modulus) internal returns (uint256) {\n        randNonce = randNonce.add(1);\n        return uint256(keccak256(abi.encodePacked(now, msg.sender, randNonce))) % _modulus;\n    }\n}\n",
  "sourcePath": "/app/contracts/ZombieBattle.sol",
  "compiler": {
    "name": "solc",
    "version": "0.4.25+commit.59dbf8f1.Emscripten.clang"
  },
  "schemaVersion": "3.4.16",
  "updatedAt": "2026-03-17T06:07:24.724Z",
  "networkType": "ethereum",
  "devdoc": {
    "methods": {
      "isOwner()": {
        "return": "true if `msg.sender` is the owner of the contract."
      },
      "owner()": {
        "return": "the address of the owner."
      },
      "renounceOwnership()": {
        "details": "Allows the current owner to relinquish control of the contract."
      },
      "transferOwnership(address)": {
        "details": "Allows the current owner to transfer control of the contract to a newOwner.",
        "params": {
          "newOwner": "The address to transfer ownership to."
        }
      }
    }
  },
  "userdoc": {
    "methods": {
      "renounceOwnership()": {
        "notice": "Renouncing to ownership will leave the contract without an owner. It will not be possible to call the functions with the `onlyOwner` modifier anymore."
      }
    }
  }
}