{
  "contractName": "ZombieCoin",
  "abi": [
    {
      "constant": true,
      "inputs": [],
      "name": "name",
      "outputs": [
        {
          "name": "",
          "type": "string"
        }
      ],
      "payable": false,
      "stateMutability": "view",
      "type": "function"
    },
    {
      "constant": true,
      "inputs": [],
      "name": "totalSupply",
      "outputs": [
        {
          "name": "",
          "type": "uint256"
        }
      ],
      "payable": false,
      "stateMutability": "view",
      "type": "function"
    },
    {
      "constant": true,
      "inputs": [],
      "name": "decimals",
      "outputs": [
        {
          "name": "",
          "type": "uint8"
        }
      ],
      "payable": false,
      "stateMutability": "view",
      "type": "function"
    },
    {
      "constant": true,
      "inputs": [
        {
          "name": "",
          "type": "address"
        }
      ],
      "name": "zombieCoins",
      "outputs": [
        {
          "name": "",
          "type": "uint256"
        }
      ],
      "payable": false,
      "stateMutability": "view",
      "type": "function"
    },
    {
      "constant": true,
      "inputs": [],
      "name": "ETH_PER_PURCHASE",
      "outputs": [
        {
          "name": "",
          "type": "uint256"
        }
      ],
      "payable": false,
      "stateMutability": "view",
      "type": "function"
    },
    {
      "constant": true,
      "inputs": [],
      "name": "WIN_BONUS",
      "outputs": [
        {
          "name": "",
          "type": "uint256"
        }
      ],
      "payable": false,
      "stateMutability": "view",
      "type": "function"
    },
    {
      "constant": true,
      "inputs": [],
      "name": "COINS_PER_ETH",
      "outputs": [
        {
          "name": "",
          "type": "uint256"
        }
      ],
      "payable": false,
      "stateMutability": "view",
      "type": "function"
    },
    {
      "constant": true,
      "inputs": [],
      "name": "MIN_BET",
      "outputs": [
        {
          "name": "",
          "type": "uint256"
        }
      ],
      "payable": false,
      "stateMutability": "view",
      "type": "function"
    },
    {
      "constant": true,
      "inputs": [],
      "name": "STARTER_AMOUNT",
      "outputs": [
        {
          "name": "",
          "type": "uint256"
        }
      ],
      "payable": false,
      "stateMutability": "view",
      "type": "function"
    },
    {
      "constant": true,
      "inputs": [
        {
          "name": "",
          "type": "address"
        }
      ],
      "name": "claimedStarter",
      "outputs": [
        {
          "name": "",
          "type": "bool"
        }
      ],
      "payable": false,
      "stateMutability": "view",
      "type": "function"
    },
    {
      "constant": true,
      "inputs": [],
      "name": "symbol",
      "outputs": [
        {
          "name": "",
          "type": "string"
        }
      ],
      "payable": false,
      "stateMutability": "view",
      "type": "function"
    },
    {
      "constant": true,
      "inputs": [],
      "name": "COINS_PER_PURCHASE",
      "outputs": [
        {
          "name": "",
          "type": "uint256"
        }
      ],
      "payable": false,
      "stateMutability": "view",
      "type": "function"
    },
    {
      "anonymous": false,
      "inputs": [
        {
          "indexed": true,
          "name": "to",
          "type": "address"
        },
        {
          "indexed": false,
          "name": "amount",
          "type": "uint256"
        }
      ],
      "name": "CoinsMinted",
      "type": "event"
    },
    {
      "anonymous": false,
      "inputs": [
        {
          "indexed": true,
          "name": "from",
          "type": "address"
        },
        {
          "indexed": true,
          "name": "to",
          "type": "address"
        },
        {
          "indexed": false,
          "name": "amount",
          "type": "uint256"
        }
      ],
      "name": "CoinsTransferred",
      "type": "event"
    },
    {
      "anonymous": false,
      "inputs": [
        {
          "indexed": true,
          "name": "player",
          "type": "address"
        },
        {
          "indexed": false,
          "name": "amount",
          "type": "uint256"
        }
      ],
      "name": "StarterClaimed",
      "type": "event"
    },
    {
      "anonymous": false,
      "inputs": [
        {
          "indexed": true,
          "name": "player",
          "type": "address"
        },
        {
          "indexed": false,
          "name": "ethSpent",
          "type": "uint256"
        },
        {
          "indexed": false,
          "name": "coinsReceived",
          "type": "uint256"
        }
      ],
      "name": "CoinsPurchased",
      "type": "event"
    },
    {
      "constant": false,
      "inputs": [],
      "name": "claimStarterCoins",
      "outputs": [],
      "payable": false,
      "stateMutability": "nonpayable",
      "type": "function"
    },
    {
      "constant": false,
      "inputs": [],
      "name": "buyCoins",
      "outputs": [],
      "payable": true,
      "stateMutability": "payable",
      "type": "function"
    },
    {
      "constant": true,
      "inputs": [
        {
          "name": "_player",
          "type": "address"
        }
      ],
      "name": "getZombieCoins",
      "outputs": [
        {
          "name": "",
          "type": "uint256"
        }
      ],
      "payable": false,
      "stateMutability": "view",
      "type": "function"
    },
    {
      "constant": true,
      "inputs": [
        {
          "name": "_player",
          "type": "address"
        }
      ],
      "name": "hasClaimedStarter",
      "outputs": [
        {
          "name": "",
          "type": "bool"
        }
      ],
      "payable": false,
      "stateMutability": "view",
      "type": "function"
    }
  ],
  "bytecode": "0x60806040526040805190810160405280600a81526020017f5a6f6d626965436f696e000000000000000000000000000000000000000000008152506000908051906020019061004f9291906100ca565b506040805190810160405280600381526020017f5a4d4200000000000000000000000000000000000000000000000000000000008152506001908051906020019061009b9291906100ca565b506000600260006101000a81548160ff021916908360ff1602179055503480156100c457600080fd5b5061016f565b828054600181600116156101000203166002900490600052602060002090601f016020900481019282601f1061010b57805160ff1916838001178555610139565b82800160010185558215610139579182015b8281111561013857825182559160200191906001019061011d565b5b509050610146919061014a565b5090565b61016c91905b80821115610168576000816000905550600101610150565b5090565b90565b610bc48061017e6000396000f3006080604052600436106100e6576000357c0100000000000000000000000000000000000000000000000000000000900463ffffffff16806306fdde03146100eb57806318160ddd1461017b578063313ce567146101a657806334e1e0f9146101d75780633766bd1d1461022e5780633a6f6b381461025957806347ee2992146102845780634a8be1f8146102af5780636540742f1461030a5780636f323cb9146103355780638db7eefe1461036057806395d89b41146103bb5780639a777d5d1461044b578063b5a742e514610455578063cf4af636146104ac578063ecc0d224146104d7575b600080fd5b3480156100f757600080fd5b506101006104ee565b6040518080602001828103825283818151815260200191508051906020019080838360005b83811015610140578082015181840152602081019050610125565b50505050905090810190601f16801561016d5780820380516001836020036101000a031916815260200191505b509250505060405180910390f35b34801561018757600080fd5b5061019061058c565b6040518082815260200191505060405180910390f35b3480156101b257600080fd5b506101bb610592565b604051808260ff1660ff16815260200191505060405180910390f35b3480156101e357600080fd5b50610218600480360381019080803573ffffffffffffffffffffffffffffffffffffffff1690602001909291905050506105a5565b6040518082815260200191505060405180910390f35b34801561023a57600080fd5b506102436105bd565b6040518082815260200191505060405180910390f35b34801561026557600080fd5b5061026e6105c8565b6040518082815260200191505060405180910390f35b34801561029057600080fd5b506102996105cd565b6040518082815260200191505060405180910390f35b3480156102bb57600080fd5b506102f0600480360381019080803573ffffffffffffffffffffffffffffffffffffffff1690602001909291905050506105d3565b604051808215151515815260200191505060405180910390f35b34801561031657600080fd5b5061031f610629565b6040518082815260200191505060405180910390f35b34801561034157600080fd5b5061034a61062e565b6040518082815260200191505060405180910390f35b34801561036c57600080fd5b506103a1600480360381019080803573ffffffffffffffffffffffffffffffffffffffff169060200190929190505050610634565b604051808215151515815260200191505060405180910390f35b3480156103c757600080fd5b506103d0610654565b6040518080602001828103825283818151815260200191508051906020019080838360005b838110156104105780820151818401526020810190506103f5565b50505050905090810190601f16801561043d5780820380516001836020036101000a031916815260200191505b509250505060405180910390f35b6104536106f2565b005b34801561046157600080fd5b50610496600480360381019080803573ffffffffffffffffffffffffffffffffffffffff169060200190929190505050610877565b6040518082815260200191505060405180910390f35b3480156104b857600080fd5b506104c16108c0565b6040518082815260200191505060405180910390f35b3480156104e357600080fd5b506104ec6108c5565b005b60008054600181600116156101000203166002900480601f0160208091040260200160405190810160405280929190818152602001828054600181600116156101000203166002900480156105845780601f1061055957610100808354040283529160200191610584565b820191906000526020600020905b81548152906001019060200180831161056757829003601f168201915b505050505081565b60035481565b600260009054906101000a900460ff1681565b60046020528060005260406000206000915090505481565b662386f26fc1000081565b606481565b61271081565b6000600560008373ffffffffffffffffffffffffffffffffffffffff1673ffffffffffffffffffffffffffffffffffffffff16815260200190815260200160002060009054906101000a900460ff169050919050565b606481565b6101f481565b60056020528060005260406000206000915054906101000a900460ff1681565b60018054600181600116156101000203166002900480601f0160208091040260200160405190810160405280929190818152602001828054600181600116156101000203166002900480156106ea5780601f106106bf576101008083540402835291602001916106ea565b820191906000526020600020905b8154815290600101906020018083116106cd57829003601f168201915b505050505081565b6000806000662386f26fc100003410151515610776576040517f08c379a00000000000000000000000000000000000000000000000000000000081526004018080602001828103825260168152602001807f53656e64206174206c6561737420302e3031204554480000000000000000000081525060200191505060405180910390fd5b662386f26fc100003481151561078857fe5b04925061079f606484610a3d90919063ffffffff16565b91506107bb662386f26fc1000084610a3d90919063ffffffff16565b340390506107c93383610a78565b600081111561081a573373ffffffffffffffffffffffffffffffffffffffff166108fc829081150290604051600060405180830381858888f19350505050158015610818573d6000803e3d6000fd5b505b3373ffffffffffffffffffffffffffffffffffffffff167fe42c627940ae035b15bcb45ba29d47ff8b9716b27a4b993b5513d8c0516dc1ed82340384604051808381526020018281526020019250505060405180910390a2505050565b6000600460008373ffffffffffffffffffffffffffffffffffffffff1673ffffffffffffffffffffffffffffffffffffffff168152602001908152602001600020549050919050565b606481565b600560003373ffffffffffffffffffffffffffffffffffffffff1673ffffffffffffffffffffffffffffffffffffffff16815260200190815260200160002060009054906101000a900460ff16151515610987576040517f08c379a000000000000000000000000000000000000000000000000000000000815260040180806020018281038252601d8152602001807f416c726561647920636c61696d6564207374617274657220636f696e7300000081525060200191505060405180910390fd5b6001600560003373ffffffffffffffffffffffffffffffffffffffff1673ffffffffffffffffffffffffffffffffffffffff16815260200190815260200160002060006101000a81548160ff0219169083151502179055506109eb336101f4610a78565b3373ffffffffffffffffffffffffffffffffffffffff167f52dde3b6ac4d2c94b2e878aaf033c38945dcaf805d7cb55ab344702151abd2326101f46040518082815260200191505060405180910390a2565b6000806000841415610a525760009150610a71565b8284029050828482811515610a6357fe5b04141515610a6d57fe5b8091505b5092915050565b610aca81600460008573ffffffffffffffffffffffffffffffffffffffff1673ffffffffffffffffffffffffffffffffffffffff16815260200190815260200160002054610b7a90919063ffffffff16565b600460008473ffffffffffffffffffffffffffffffffffffffff1673ffffffffffffffffffffffffffffffffffffffff16815260200190815260200160002081905550610b2281600354610b7a90919063ffffffff16565b6003819055508173ffffffffffffffffffffffffffffffffffffffff167fc9ac6f335722ba5012b311e37c325450961c6e224ea391135b78d95118e190c9826040518082815260200191505060405180910390a25050565b6000808284019050838110151515610b8e57fe5b80915050929150505600a165627a7a72305820c8680a32a23d7482f0b548fb6621e0c6a436c16f4b59c796f2d3deac67682f970029",
  "source": "pragma solidity ^0.4.25;\n\nimport \"./safemath.sol\";\n\ncontract ZombieCoin {\n    using SafeMath for uint256;\n\n    string  public name     = \"ZombieCoin\";\n    string  public symbol   = \"ZMB\";\n    uint8   public decimals = 0;\n    uint256 public totalSupply;\n\n    uint256 public constant COINS_PER_ETH    = 10000; // 0.01 ETH = 100 ZMB\n    uint256 public constant STARTER_AMOUNT   = 500;\n    uint256 public constant MIN_BET          = 100;\n    uint256 public constant WIN_BONUS        = 100;\n    uint256 public constant ETH_PER_PURCHASE = 0.01 ether;\n    uint256 public constant COINS_PER_PURCHASE = 100;\n\n    mapping(address => uint256) public zombieCoins;\n    mapping(address => bool)    public claimedStarter;\n\n    event CoinsMinted(address indexed to, uint256 amount);\n    event CoinsTransferred(address indexed from, address indexed to, uint256 amount);\n    event StarterClaimed(address indexed player, uint256 amount);\n    event CoinsPurchased(address indexed player, uint256 ethSpent, uint256 coinsReceived);\n\n    function _mintCoins(address _to, uint256 _amount) internal {\n        zombieCoins[_to] = zombieCoins[_to].add(_amount);\n        totalSupply       = totalSupply.add(_amount);\n        emit CoinsMinted(_to, _amount);\n    }\n\n    function _transferCoins(address _from, address _to, uint256 _amount) internal {\n        require(zombieCoins[_from] >= _amount, \"Insufficient ZMB\");\n        zombieCoins[_from] = zombieCoins[_from].sub(_amount);\n        zombieCoins[_to]   = zombieCoins[_to].add(_amount);\n        emit CoinsTransferred(_from, _to, _amount);\n    }\n\n    function claimStarterCoins() public {\n        require(!claimedStarter[msg.sender], \"Already claimed starter coins\");\n        claimedStarter[msg.sender] = true;\n        _mintCoins(msg.sender, STARTER_AMOUNT);\n        emit StarterClaimed(msg.sender, STARTER_AMOUNT);\n    }\n\n    function buyCoins() public payable {\n        require(msg.value >= ETH_PER_PURCHASE, \"Send at least 0.01 ETH\");\n        uint256 purchases = msg.value / ETH_PER_PURCHASE;\n        uint256 coins     = purchases.mul(COINS_PER_PURCHASE);\n        uint256 refund    = msg.value - purchases.mul(ETH_PER_PURCHASE);\n        _mintCoins(msg.sender, coins);\n        if (refund > 0) msg.sender.transfer(refund);\n        emit CoinsPurchased(msg.sender, msg.value - refund, coins);\n    }\n\n    function getZombieCoins(address _player) public view returns (uint256) {\n        return zombieCoins[_player];\n    }\n\n    function hasClaimedStarter(address _player) public view returns (bool) {\n        return claimedStarter[_player];\n    }\n}\n",
  "sourcePath": "/app/contracts/ZombieCoin.sol",
  "compiler": {
    "name": "solc",
    "version": "0.4.25+commit.59dbf8f1.Emscripten.clang"
  },
  "schemaVersion": "3.4.16",
  "updatedAt": "2026-03-17T06:07:23.480Z",
  "devdoc": {
    "methods": {}
  },
  "userdoc": {
    "methods": {}
  }
}