{
  "contractName": "ZombieMarketplace",
  "abi": [
    {
      "constant": false,
      "inputs": [
        {
          "name": "_approved",
          "type": "address"
        },
        {
          "name": "_tokenId",
          "type": "uint256"
        }
      ],
      "name": "approve",
      "outputs": [],
      "payable": true,
      "stateMutability": "payable",
      "type": "function"
    },
    {
      "constant": false,
      "inputs": [
        {
          "name": "_zombieId",
          "type": "uint256"
        }
      ],
      "name": "levelUp",
      "outputs": [],
      "payable": true,
      "stateMutability": "payable",
      "type": "function"
    },
    {
      "constant": true,
      "inputs": [
        {
          "name": "",
          "type": "uint256"
        }
      ],
      "name": "zombieIsListed",
      "outputs": [
        {
          "name": "",
          "type": "bool"
        }
      ],
      "payable": false,
      "stateMutability": "view",
      "type": "function"
    },
    {
      "constant": true,
      "inputs": [
        {
          "name": "",
          "type": "uint256"
        }
      ],
      "name": "zombieToListing",
      "outputs": [
        {
          "name": "",
          "type": "uint256"
        }
      ],
      "payable": false,
      "stateMutability": "view",
      "type": "function"
    },
    {
      "constant": false,
      "inputs": [
        {
          "name": "_zombieId",
          "type": "uint256"
        },
        {
          "name": "_kittyId",
          "type": "uint256"
        }
      ],
      "name": "feedOnKitty",
      "outputs": [],
      "payable": false,
      "stateMutability": "nonpayable",
      "type": "function"
    },
    {
      "constant": true,
      "inputs": [
        {
          "name": "",
          "type": "uint256"
        }
      ],
      "name": "zombies",
      "outputs": [
        {
          "name": "name",
          "type": "string"
        },
        {
          "name": "dna",
          "type": "uint256"
        },
        {
          "name": "level",
          "type": "uint32"
        },
        {
          "name": "readyTime",
          "type": "uint32"
        },
        {
          "name": "winCount",
          "type": "uint16"
        },
        {
          "name": "lossCount",
          "type": "uint16"
        }
      ],
      "payable": false,
      "stateMutability": "view",
      "type": "function"
    },
    {
      "constant": false,
      "inputs": [
        {
          "name": "_from",
          "type": "address"
        },
        {
          "name": "_to",
          "type": "address"
        },
        {
          "name": "_tokenId",
          "type": "uint256"
        }
      ],
      "name": "transferFrom",
      "outputs": [],
      "payable": true,
      "stateMutability": "payable",
      "type": "function"
    },
    {
      "constant": false,
      "inputs": [],
      "name": "withdraw",
      "outputs": [],
      "payable": false,
      "stateMutability": "nonpayable",
      "type": "function"
    },
    {
      "constant": true,
      "inputs": [
        {
          "name": "_owner",
          "type": "address"
        }
      ],
      "name": "getZombiesByOwner",
      "outputs": [
        {
          "name": "",
          "type": "uint256[]"
        }
      ],
      "payable": false,
      "stateMutability": "view",
      "type": "function"
    },
    {
      "constant": true,
      "inputs": [
        {
          "name": "",
          "type": "uint256"
        }
      ],
      "name": "zombieToOwner",
      "outputs": [
        {
          "name": "",
          "type": "address"
        }
      ],
      "payable": false,
      "stateMutability": "view",
      "type": "function"
    },
    {
      "constant": false,
      "inputs": [
        {
          "name": "_address",
          "type": "address"
        }
      ],
      "name": "setKittyContractAddress",
      "outputs": [],
      "payable": false,
      "stateMutability": "nonpayable",
      "type": "function"
    },
    {
      "constant": false,
      "inputs": [
        {
          "name": "_zombieId",
          "type": "uint256"
        },
        {
          "name": "_newDna",
          "type": "uint256"
        }
      ],
      "name": "changeDna",
      "outputs": [],
      "payable": false,
      "stateMutability": "nonpayable",
      "type": "function"
    },
    {
      "constant": true,
      "inputs": [
        {
          "name": "_tokenId",
          "type": "uint256"
        }
      ],
      "name": "ownerOf",
      "outputs": [
        {
          "name": "",
          "type": "address"
        }
      ],
      "payable": false,
      "stateMutability": "view",
      "type": "function"
    },
    {
      "constant": true,
      "inputs": [
        {
          "name": "_owner",
          "type": "address"
        }
      ],
      "name": "balanceOf",
      "outputs": [
        {
          "name": "",
          "type": "uint256"
        }
      ],
      "payable": false,
      "stateMutability": "view",
      "type": "function"
    },
    {
      "constant": false,
      "inputs": [],
      "name": "renounceOwnership",
      "outputs": [],
      "payable": false,
      "stateMutability": "nonpayable",
      "type": "function"
    },
    {
      "constant": false,
      "inputs": [
        {
          "name": "_name",
          "type": "string"
        }
      ],
      "name": "createRandomZombie",
      "outputs": [],
      "payable": false,
      "stateMutability": "nonpayable",
      "type": "function"
    },
    {
      "constant": true,
      "inputs": [],
      "name": "owner",
      "outputs": [
        {
          "name": "",
          "type": "address"
        }
      ],
      "payable": false,
      "stateMutability": "view",
      "type": "function"
    },
    {
      "constant": true,
      "inputs": [],
      "name": "isOwner",
      "outputs": [
        {
          "name": "",
          "type": "bool"
        }
      ],
      "payable": false,
      "stateMutability": "view",
      "type": "function"
    },
    {
      "constant": false,
      "inputs": [
        {
          "name": "_zombieId",
          "type": "uint256"
        },
        {
          "name": "_newName",
          "type": "string"
        }
      ],
      "name": "changeName",
      "outputs": [],
      "payable": false,
      "stateMutability": "nonpayable",
      "type": "function"
    },
    {
      "constant": false,
      "inputs": [
        {
          "name": "_fee",
          "type": "uint256"
        }
      ],
      "name": "setLevelUpFee",
      "outputs": [],
      "payable": false,
      "stateMutability": "nonpayable",
      "type": "function"
    },
    {
      "constant": true,
      "inputs": [
        {
          "name": "",
          "type": "uint256"
        }
      ],
      "name": "listings",
      "outputs": [
        {
          "name": "zombieId",
          "type": "uint256"
        },
        {
          "name": "seller",
          "type": "address"
        },
        {
          "name": "price",
          "type": "uint256"
        },
        {
          "name": "active",
          "type": "bool"
        }
      ],
      "payable": false,
      "stateMutability": "view",
      "type": "function"
    },
    {
      "constant": false,
      "inputs": [
        {
          "name": "_zombieId",
          "type": "uint256"
        },
        {
          "name": "_targetId",
          "type": "uint256"
        }
      ],
      "name": "attack",
      "outputs": [],
      "payable": false,
      "stateMutability": "nonpayable",
      "type": "function"
    },
    {
      "constant": false,
      "inputs": [
        {
          "name": "newOwner",
          "type": "address"
        }
      ],
      "name": "transferOwnership",
      "outputs": [],
      "payable": false,
      "stateMutability": "nonpayable",
      "type": "function"
    },
    {
      "anonymous": false,
      "inputs": [
        {
          "indexed": true,
          "name": "zombieId",
          "type": "uint256"
        },
        {
          "indexed": true,
          "name": "seller",
          "type": "address"
        },
        {
          "indexed": false,
          "name": "price",
          "type": "uint256"
        }
      ],
      "name": "ZombieListed",
      "type": "event"
    },
    {
      "anonymous": false,
      "inputs": [
        {
          "indexed": true,
          "name": "zombieId",
          "type": "uint256"
        },
        {
          "indexed": true,
          "name": "buyer",
          "type": "address"
        },
        {
          "indexed": false,
          "name": "price",
          "type": "uint256"
        }
      ],
      "name": "ZombieSold",
      "type": "event"
    },
    {
      "anonymous": false,
      "inputs": [
        {
          "indexed": true,
          "name": "zombieId",
          "type": "uint256"
        }
      ],
      "name": "ZombieDelisted",
      "type": "event"
    },
    {
      "anonymous": false,
      "inputs": [
        {
          "indexed": true,
          "name": "_from",
          "type": "address"
        },
        {
          "indexed": true,
          "name": "_to",
          "type": "address"
        },
        {
          "indexed": true,
          "name": "_tokenId",
          "type": "uint256"
        }
      ],
      "name": "Transfer",
      "type": "event"
    },
    {
      "anonymous": false,
      "inputs": [
        {
          "indexed": true,
          "name": "_owner",
          "type": "address"
        },
        {
          "indexed": true,
          "name": "_approved",
          "type": "address"
        },
        {
          "indexed": true,
          "name": "_tokenId",
          "type": "uint256"
        }
      ],
      "name": "Approval",
      "type": "event"
    },
    {
      "anonymous": false,
      "inputs": [
        {
          "indexed": false,
          "name": "zombieId",
          "type": "uint256"
        },
        {
          "indexed": false,
          "name": "name",
          "type": "string"
        },
        {
          "indexed": false,
          "name": "dna",
          "type": "uint256"
        }
      ],
      "name": "NewZombie",
      "type": "event"
    },
    {
      "anonymous": false,
      "inputs": [
        {
          "indexed": true,
          "name": "previousOwner",
          "type": "address"
        },
        {
          "indexed": true,
          "name": "newOwner",
          "type": "address"
        }
      ],
      "name": "OwnershipTransferred",
      "type": "event"
    },
    {
      "constant": false,
      "inputs": [
        {
          "name": "_zombieId",
          "type": "uint256"
        },
        {
          "name": "_price",
          "type": "uint256"
        }
      ],
      "name": "listZombie",
      "outputs": [],
      "payable": false,
      "stateMutability": "nonpayable",
      "type": "function"
    },
    {
      "constant": false,
      "inputs": [
        {
          "name": "_zombieId",
          "type": "uint256"
        }
      ],
      "name": "buyZombie",
      "outputs": [],
      "payable": true,
      "stateMutability": "payable",
      "type": "function"
    },
    {
      "constant": false,
      "inputs": [
        {
          "name": "_zombieId",
          "type": "uint256"
        }
      ],
      "name": "delistZombie",
      "outputs": [],
      "payable": false,
      "stateMutability": "nonpayable",
      "type": "function"
    },
    {
      "constant": true,
      "inputs": [],
      "name": "getActiveListings",
      "outputs": [
        {
          "name": "",
          "type": "uint256[]"
        }
      ],
      "payable": false,
      "stateMutability": "view",
      "type": "function"
    },
    {
      "constant": true,
      "inputs": [],
      "name": "getListingCount",
      "outputs": [
        {
          "name": "",
          "type": "uint256"
        }
      ],
      "payable": false,
      "stateMutability": "view",
      "type": "function"
    }
  ],
  "bytecode": "0x60806040526010600155600154600a0a600255600a60035566038d7ea4c680006008556000601d556046601e55336000806101000a81548173ffffffffffffffffffffffffffffffffffffffff021916908373ffffffffffffffffffffffffffffffffffffffff1602179055506000809054906101000a900473ffffffffffffffffffffffffffffffffffffffff1673ffffffffffffffffffffffffffffffffffffffff16600073ffffffffffffffffffffffffffffffffffffffff167f8be0079c531659141344cd1fd0a4f28419497f9722a3daafe3b4186f6b6457e060405160405180910390a37f446561746800000000000000000000000000000000000000000000000000000060096000600a811015156200011a57fe5b0181600019169055507f536861646f77000000000000000000000000000000000000000000000000000060096001600a811015156200015557fe5b0181600019169055507f426c6f6f6400000000000000000000000000000000000000000000000000000060096002600a811015156200019057fe5b0181600019169055507f477261766500000000000000000000000000000000000000000000000000000060096003600a81101515620001cb57fe5b0181600019169055507f536b756c6c00000000000000000000000000000000000000000000000000000060096004600a811015156200020657fe5b0181600019169055507f426f6e650000000000000000000000000000000000000000000000000000000060096005600a811015156200024157fe5b0181600019169055507f546f78696300000000000000000000000000000000000000000000000000000060096006600a811015156200027c57fe5b0181600019169055507f56656e6f6d00000000000000000000000000000000000000000000000000000060096007600a81101515620002b757fe5b0181600019169055507f4461726b0000000000000000000000000000000000000000000000000000000060096008600a81101515620002f257fe5b0181600019169055507f526f7474656e0000000000000000000000000000000000000000000000000000600980600a811015156200032c57fe5b0181600019169055507f57616c6b6572000000000000000000000000000000000000000000000000000060136000600a811015156200036757fe5b0181600019169055507f437275736865720000000000000000000000000000000000000000000000000060136001600a81101515620003a257fe5b0181600019169055507f5374616c6b65720000000000000000000000000000000000000000000000000060136002600a81101515620003dd57fe5b0181600019169055507f466565646572000000000000000000000000000000000000000000000000000060136003600a811015156200041857fe5b0181600019169055507f476e61776572000000000000000000000000000000000000000000000000000060136004600a811015156200045357fe5b0181600019169055507f526970706572000000000000000000000000000000000000000000000000000060136005600a811015156200048e57fe5b0181600019169055507f4c75726b6572000000000000000000000000000000000000000000000000000060136006600a81101515620004c957fe5b0181600019169055507f426974657200000000000000000000000000000000000000000000000000000060136007600a811015156200050457fe5b0181600019169055507f4d61756c6572000000000000000000000000000000000000000000000000000060136008600a811015156200053f57fe5b0181600019169055507f526176616765720000000000000000000000000000000000000000000000000060136009600a811015156200057a57fe5b01816000191690555061390780620005936000396000f30060806040526004361061016a576000357c0100000000000000000000000000000000000000000000000000000000900463ffffffff168063095ea7b31461016f5780630ce90ec2146101af5780630e8c9c93146101cf57806310152cf81461021457806315e07c971461025557806317a7f4cc146102825780632052465e146102b957806323b872dd146103aa5780633ccfd60b1461040a5780634412e10414610421578063528b7b8f146104b95780635f4623f1146105265780635faf2880146105695780636352211e146105a057806370a082311461060d578063715018a6146106645780637bff0a011461067b57806387c35bc0146106e457806387ed92d7146107505780638da5cb5b1461077b5780638f32d59b146107d2578063b92e2d7414610801578063c39cbef114610821578063ccf670f814610866578063de74e57b14610893578063e1fa763814610919578063e7f6f15d14610950578063f2fde38b14610987575b600080fd5b6101ad600480360381019080803573ffffffffffffffffffffffffffffffffffffffff169060200190929190803590602001909291905050506109ca565b005b6101cd60048036038101908080359060200190929190505050610aea565b005b3480156101db57600080fd5b506101fa60048036038101908080359060200190929190505050610b85565b604051808215151515815260200191505060405180910390f35b34801561022057600080fd5b5061023f60048036038101908080359060200190929190505050610ba5565b6040518082815260200191505060405180910390f35b34801561026157600080fd5b5061028060048036038101908080359060200190929190505050610bbd565b005b34801561028e57600080fd5b506102b76004803603810190808035906020019092919080359060200190929190505050610d6f565b005b3480156102c557600080fd5b506102e460048036038101908080359060200190929190505050610f18565b60405180806020018781526020018663ffffffff1663ffffffff1681526020018563ffffffff1663ffffffff1681526020018461ffff1661ffff1681526020018361ffff1661ffff168152602001828103825288818151815260200191508051906020019080838360005b8381101561036a57808201518184015260208101905061034f565b50505050905090810190601f1680156103975780820380516001836020036101000a031916815260200191505b5097505050505050505060405180910390f35b610408600480360381019080803573ffffffffffffffffffffffffffffffffffffffff169060200190929190803573ffffffffffffffffffffffffffffffffffffffff16906020019092919080359060200190929190505050611037565b005b34801561041657600080fd5b5061041f61111d565b005b34801561042d57600080fd5b50610462600480360381019080803573ffffffffffffffffffffffffffffffffffffffff16906020019092919050505061119d565b6040518080602001828103825283818151815260200191508051906020019060200280838360005b838110156104a557808201518184015260208101905061048a565b505050509050019250505060405180910390f35b3480156104c557600080fd5b506104e4600480360381019080803590602001909291905050506112cf565b604051808273ffffffffffffffffffffffffffffffffffffffff1673ffffffffffffffffffffffffffffffffffffffff16815260200191505060405180910390f35b34801561053257600080fd5b50610567600480360381019080803573ffffffffffffffffffffffffffffffffffffffff169060200190929190505050611302565b005b34801561057557600080fd5b5061059e6004803603810190808035906020019092919080359060200190929190505050611359565b005b3480156105ac57600080fd5b506105cb6004803603810190808035906020019092919050505061143b565b604051808273ffffffffffffffffffffffffffffffffffffffff1673ffffffffffffffffffffffffffffffffffffffff16815260200191505060405180910390f35b34801561061957600080fd5b5061064e600480360381019080803573ffffffffffffffffffffffffffffffffffffffff169060200190929190505050611478565b6040518082815260200191505060405180910390f35b34801561067057600080fd5b506106796114c1565b005b34801561068757600080fd5b506106e2600480360381019080803590602001908201803590602001908080601f0160208091040260200160405190810160405280939291908181526020018383808284378201915050505050509192919290505050611593565b005b3480156106f057600080fd5b506106f9611675565b6040518080602001828103825283818151815260200191508051906020019060200280838360005b8381101561073c578082015181840152602081019050610721565b505050509050019250505060405180910390f35b34801561075c57600080fd5b50610765611795565b6040518082815260200191505060405180910390f35b34801561078757600080fd5b506107906117a2565b604051808273ffffffffffffffffffffffffffffffffffffffff1673ffffffffffffffffffffffffffffffffffffffff16815260200191505060405180910390f35b3480156107de57600080fd5b506107e76117cb565b604051808215151515815260200191505060405180910390f35b61081f60048036038101908080359060200190929190505050611822565b005b34801561082d57600080fd5b5061086460048036038101908080359060200190929190803590602001908201803590602001919091929391929390505050611c34565b005b34801561087257600080fd5b5061089160048036038101908080359060200190929190505050611d22565b005b34801561089f57600080fd5b506108be60048036038101908080359060200190929190505050611d3f565b604051808581526020018473ffffffffffffffffffffffffffffffffffffffff1673ffffffffffffffffffffffffffffffffffffffff1681526020018381526020018215151515815260200194505050505060405180910390f35b34801561092557600080fd5b5061094e6004803603810190808035906020019092919080359060200190929190505050611dab565b005b34801561095c57600080fd5b50610985600480360381019080803590602001909291908035906020019092919050505061203e565b005b34801561099357600080fd5b506109c8600480360381019080803573ffffffffffffffffffffffffffffffffffffffff16906020019092919050505061233f565b005b806005600082815260200190815260200160002060009054906101000a900473ffffffffffffffffffffffffffffffffffffffff1673ffffffffffffffffffffffffffffffffffffffff163373ffffffffffffffffffffffffffffffffffffffff16141515610a3857600080fd5b82601f600084815260200190815260200160002060006101000a81548173ffffffffffffffffffffffffffffffffffffffff021916908373ffffffffffffffffffffffffffffffffffffffff160217905550818373ffffffffffffffffffffffffffffffffffffffff163373ffffffffffffffffffffffffffffffffffffffff167f8c5be1e5ebec7d5bd14f71427d1e84f3dd0314c0f7b2291e5b200ac8c7c3b92560405160405180910390a4505050565b60085434141515610afa57600080fd5b610b446001600483815481101515610b0e57fe5b906000526020600020906003020160020160009054906101000a900463ffffffff1663ffffffff1661235e90919063ffffffff16565b600482815481101515610b5357fe5b906000526020600020906003020160020160006101000a81548163ffffffff021916908363ffffffff16021790555050565b60226020528060005260406000206000915054906101000a900460ff1681565b60216020528060005260406000206000915090505481565b6000816005600082815260200190815260200160002060009054906101000a900473ffffffffffffffffffffffffffffffffffffffff1673ffffffffffffffffffffffffffffffffffffffff163373ffffffffffffffffffffffffffffffffffffffff16141515610c2d57600080fd5b6022600084815260200190815260200160002060009054906101000a900460ff161515610cc2576040517f08c379a000000000000000000000000000000000000000000000000000000000815260040180806020018281038252600a8152602001807f4e6f74206c69737465640000000000000000000000000000000000000000000081525060200191505060405180910390fd5b602160008481526020019081526020016000205491506000602083815481101515610ce957fe5b906000526020600020906004020160030160006101000a81548160ff02191690831515021790555060006022600085815260200190815260200160002060006101000a81548160ff021916908315150217905550827f8b99877104ce694806d96430327da98a5fc370ed75bb3679b12404dc5e8731aa60405160405180910390a2505050565b6000600760009054906101000a900473ffffffffffffffffffffffffffffffffffffffff1673ffffffffffffffffffffffffffffffffffffffff1663e98b7f4d836040518263ffffffff167c01000000000000000000000000000000000000000000000000000000000281526004018082815260200191505061014060405180830381600087803b158015610e0357600080fd5b505af1158015610e17573d6000803e3d6000fd5b505050506040513d610140811015610e2e57600080fd5b810190808051906020019092919080519060200190929190805190602001909291908051906020019092919080519060200190929190805190602001909291908051906020019092919080519060200190929190805190602001909291908051906020019092919050505090919293949596979850909192939495969750909192939495965090919293949550909192939450909192935090919250909150905080915050610f1383826040805190810160405280600581526020017f6b69747479000000000000000000000000000000000000000000000000000000815250612388565b505050565b600481815481101515610f2757fe5b9060005260206000209060030201600091509050806000018054600181600116156101000203166002900480601f016020809104026020016040519081016040528092919081815260200182805460018160011615610100020316600290048015610fd35780601f10610fa857610100808354040283529160200191610fd3565b820191906000526020600020905b815481529060010190602001808311610fb657829003601f168201915b5050505050908060010154908060020160009054906101000a900463ffffffff16908060020160049054906101000a900463ffffffff16908060020160089054906101000a900461ffff169080600201600a9054906101000a900461ffff16905086565b3373ffffffffffffffffffffffffffffffffffffffff166005600083815260200190815260200160002060009054906101000a900473ffffffffffffffffffffffffffffffffffffffff1673ffffffffffffffffffffffffffffffffffffffff16148061110257503373ffffffffffffffffffffffffffffffffffffffff16601f600083815260200190815260200160002060009054906101000a900473ffffffffffffffffffffffffffffffffffffffff1673ffffffffffffffffffffffffffffffffffffffff16145b151561110d57600080fd5b61111883838361260e565b505050565b60006111276117cb565b151561113257600080fd5b61113a6117a2565b90508073ffffffffffffffffffffffffffffffffffffffff166108fc3073ffffffffffffffffffffffffffffffffffffffff16319081150290604051600060405180830381858888f19350505050158015611199573d6000803e3d6000fd5b5050565b606080600080600660008673ffffffffffffffffffffffffffffffffffffffff1673ffffffffffffffffffffffffffffffffffffffff168152602001908152602001600020546040519080825280602002602001820160405280156112115781602001602082028038833980820191505090505b50925060009150600090505b6004805490508110156112c4578473ffffffffffffffffffffffffffffffffffffffff166005600083815260200190815260200160002060009054906101000a900473ffffffffffffffffffffffffffffffffffffffff1673ffffffffffffffffffffffffffffffffffffffff1614156112b7578083838151811015156112a057fe5b906020019060200201818152505081806001019250505b808060010191505061121d565b829350505050919050565b60056020528060005260406000206000915054906101000a900473ffffffffffffffffffffffffffffffffffffffff1681565b61130a6117cb565b151561131557600080fd5b80600760006101000a81548173ffffffffffffffffffffffffffffffffffffffff021916908373ffffffffffffffffffffffffffffffffffffffff16021790555050565b6014828160048281548110151561136c57fe5b906000526020600020906003020160020160009054906101000a900463ffffffff1663ffffffff16101515156113a157600080fd5b836005600082815260200190815260200160002060009054906101000a900473ffffffffffffffffffffffffffffffffffffffff1673ffffffffffffffffffffffffffffffffffffffff163373ffffffffffffffffffffffffffffffffffffffff1614151561140f57600080fd5b8360048681548110151561141f57fe5b9060005260206000209060030201600101819055505050505050565b60006005600083815260200190815260200160002060009054906101000a900473ffffffffffffffffffffffffffffffffffffffff169050919050565b6000600660008373ffffffffffffffffffffffffffffffffffffffff1673ffffffffffffffffffffffffffffffffffffffff168152602001908152602001600020549050919050565b6114c96117cb565b15156114d457600080fd5b600073ffffffffffffffffffffffffffffffffffffffff166000809054906101000a900473ffffffffffffffffffffffffffffffffffffffff1673ffffffffffffffffffffffffffffffffffffffff167f8be0079c531659141344cd1fd0a4f28419497f9722a3daafe3b4186f6b6457e060405160405180910390a360008060006101000a81548173ffffffffffffffffffffffffffffffffffffffff021916908373ffffffffffffffffffffffffffffffffffffffff160217905550565b600080600660003373ffffffffffffffffffffffffffffffffffffffff1673ffffffffffffffffffffffffffffffffffffffff1681526020019081526020016000205414151561164b576040517f08c379a00000000000000000000000000000000000000000000000000000000081526004018080602001828103825260188152602001807f596f7520616c7265616479206f776e2061207a6f6d626965000000000000000081525060200191505060405180910390fd5b611654826127ec565b905060648181151561166257fe5b068103905061167182826128da565b5050565b6060600080606060008060009450600093505b6020805490508410156116de576020848154811015156116a457fe5b906000526020600020906004020160030160009054906101000a900460ff16156116d15784806001019550505b8380600101945050611688565b8460405190808252806020026020018201604052801561170d5781602001602082028038833980820191505090505b50925060009150600090505b60208054905081101561178a5760208181548110151561173557fe5b906000526020600020906004020160030160009054906101000a900460ff161561177d5780838380600101945081518110151561176e57fe5b90602001906020020181815250505b8080600101915050611719565b829550505050505090565b6000602080549050905090565b60008060009054906101000a900473ffffffffffffffffffffffffffffffffffffffff16905090565b60008060009054906101000a900473ffffffffffffffffffffffffffffffffffffffff1673ffffffffffffffffffffffffffffffffffffffff163373ffffffffffffffffffffffffffffffffffffffff1614905090565b60008060006022600085815260200190815260200160002060009054906101000a900460ff1615156118bc576040517f08c379a000000000000000000000000000000000000000000000000000000000815260040180806020018281038252600a8152602001807f4e6f74206c69737465640000000000000000000000000000000000000000000081525060200191505060405180910390fd5b602160008581526020019081526020016000205492506020838154811015156118e157fe5b906000526020600020906004020191508160030160009054906101000a900460ff161515611977576040517f08c379a00000000000000000000000000000000000000000000000000000000081526004018080602001828103825260128152602001807f4c697374696e67206e6f7420616374697665000000000000000000000000000081525060200191505060405180910390fd5b8160010160009054906101000a900473ffffffffffffffffffffffffffffffffffffffff1673ffffffffffffffffffffffffffffffffffffffff163373ffffffffffffffffffffffffffffffffffffffff1614151515611a3f576040517f08c379a000000000000000000000000000000000000000000000000000000000815260040180806020018281038252601a8152602001807f43616e6e6f742062757920796f7572206f776e207a6f6d62696500000000000081525060200191505060405180910390fd5b81600201543410151515611abb576040517f08c379a00000000000000000000000000000000000000000000000000000000081526004018080602001828103825260108152602001807f496e73756666696369656e74204554480000000000000000000000000000000081525060200191505060405180910390fd5b60008260030160006101000a81548160ff02191690831515021790555060006022600086815260200190815260200160002060006101000a81548160ff0219169083151502179055508160010160009054906101000a900473ffffffffffffffffffffffffffffffffffffffff169050611b3681338661260e565b8073ffffffffffffffffffffffffffffffffffffffff166108fc83600201549081150290604051600060405180830381858888f19350505050158015611b80573d6000803e3d6000fd5b508160020154341115611bdb573373ffffffffffffffffffffffffffffffffffffffff166108fc836002015434039081150290604051600060405180830381858888f19350505050158015611bd9573d6000803e3d6000fd5b505b3373ffffffffffffffffffffffffffffffffffffffff16847f9879d7db6c40b074f2e4c624cae4596f488405684f85f3885be42fd14a48004c84600201546040518082815260200191505060405180910390a350505050565b60028381600482815481101515611c4757fe5b906000526020600020906003020160020160009054906101000a900463ffffffff1663ffffffff1610151515611c7c57600080fd5b846005600082815260200190815260200160002060009054906101000a900473ffffffffffffffffffffffffffffffffffffffff1673ffffffffffffffffffffffffffffffffffffffff163373ffffffffffffffffffffffffffffffffffffffff16141515611cea57600080fd5b8484600488815481101515611cfb57fe5b90600052602060002090600302016000019190611d19929190613792565b50505050505050565b611d2a6117cb565b1515611d3557600080fd5b8060088190555050565b602081815481101515611d4e57fe5b90600052602060002090600402016000915090508060000154908060010160009054906101000a900473ffffffffffffffffffffffffffffffffffffffff16908060020154908060030160009054906101000a900460ff16905084565b6000806000846005600082815260200190815260200160002060009054906101000a900473ffffffffffffffffffffffffffffffffffffffff1673ffffffffffffffffffffffffffffffffffffffff163373ffffffffffffffffffffffffffffffffffffffff16141515611e1e57600080fd5b600486815481101515611e2d57fe5b90600052602060002090600302019350600485815481101515611e4c57fe5b90600052602060002090600302019250611e666064612bad565b9150601e5482111515611f9c57611e9d60018560020160089054906101000a900461ffff1661ffff16612cb090919063ffffffff16565b8460020160086101000a81548161ffff021916908361ffff160217905550611ee960018560020160009054906101000a900463ffffffff1663ffffffff1661235e90919063ffffffff16565b8460020160006101000a81548163ffffffff021916908363ffffffff160217905550611f35600184600201600a9054906101000a900461ffff1661ffff16612cb090919063ffffffff16565b83600201600a6101000a81548161ffff021916908361ffff160217905550611f978684600101546040805190810160405280600681526020017f7a6f6d6269650000000000000000000000000000000000000000000000000000815250612388565b612036565b611fc6600185600201600a9054906101000a900461ffff1661ffff16612cb090919063ffffffff16565b84600201600a6101000a81548161ffff021916908361ffff16021790555061200e60018460020160089054906101000a900461ffff1661ffff16612cb090919063ffffffff16565b8360020160086101000a81548161ffff021916908361ffff16021790555061203584612cd6565b5b505050505050565b6000826005600082815260200190815260200160002060009054906101000a900473ffffffffffffffffffffffffffffffffffffffff1673ffffffffffffffffffffffffffffffffffffffff163373ffffffffffffffffffffffffffffffffffffffff161415156120ae57600080fd5b600083111515612126576040517f08c379a00000000000000000000000000000000000000000000000000000000081526004018080602001828103825260118152602001807f5072696365206d757374206265203e203000000000000000000000000000000081525060200191505060405180910390fd5b6022600085815260200190815260200160002060009054906101000a900460ff161515156121bc576040517f08c379a000000000000000000000000000000000000000000000000000000000815260040180806020018281038252600e8152602001807f416c7265616479206c697374656400000000000000000000000000000000000081525060200191505060405180910390fd5b600160206080604051908101604052808781526020013373ffffffffffffffffffffffffffffffffffffffff16815260200186815260200160011515815250908060018154018082558091505090600182039060005260206000209060040201600090919290919091506000820151816000015560208201518160010160006101000a81548173ffffffffffffffffffffffffffffffffffffffff021916908373ffffffffffffffffffffffffffffffffffffffff1602179055506040820151816002015560608201518160030160006101000a81548160ff021916908315150217905550505003915081602160008681526020019081526020016000208190555060016022600086815260200190815260200160002060006101000a81548160ff0219169083151502179055503373ffffffffffffffffffffffffffffffffffffffff16847f76cafae57ae500024885b2b2ecd0d194cb1b22f2958c905059207be8d60a4e5e856040518082815260200191505060405180910390a350505050565b6123476117cb565b151561235257600080fd5b61235b81612d00565b50565b60008082840190508363ffffffff168163ffffffff161015151561237e57fe5b8091505092915050565b6000806060856005600082815260200190815260200160002060009054906101000a900473ffffffffffffffffffffffffffffffffffffffff1673ffffffffffffffffffffffffffffffffffffffff163373ffffffffffffffffffffffffffffffffffffffff161415156123fb57600080fd5b60048781548110151561240a57fe5b9060005260206000209060030201935061242384612dfa565b151561242e57600080fd5b6002548681151561243b57fe5b06955060028685600101540181151561245057fe5b04925060405160200180807f6b6974747900000000000000000000000000000000000000000000000000000081525060050190506040516020818303038152906040526040518082805190602001908083835b6020831015156124c857805182526020820191506020810190506020830392506124a3565b6001836020036101000a038019825116818451168082178552505050505050905001915050604051809103902060001916856040516020018082805190602001908083835b602083101515612532578051825260208201915060208101905060208303925061250d565b6001836020036101000a0380198251168184511680821785525050505050509050019150506040516020818303038152906040526040518082805190602001908083835b60208310151561259b5780518252602082019150602081019050602083039250612576565b6001836020036101000a03801982511681845116808217855250505050505090500191505060405180910390206000191614156125e75760636064848115156125e057fe5b0684030192505b6125f083612e21565b91506125fc82846128da565b61260584612cd6565b50505050505050565b6126616001600660008573ffffffffffffffffffffffffffffffffffffffff1673ffffffffffffffffffffffffffffffffffffffff1681526020019081526020016000205461351090919063ffffffff16565b600660008473ffffffffffffffffffffffffffffffffffffffff1673ffffffffffffffffffffffffffffffffffffffff168152602001908152602001600020819055506126f76001600660008673ffffffffffffffffffffffffffffffffffffffff1673ffffffffffffffffffffffffffffffffffffffff1681526020019081526020016000205461352e90919063ffffffff16565b600660008573ffffffffffffffffffffffffffffffffffffffff1673ffffffffffffffffffffffffffffffffffffffff16815260200190815260200160002081905550816005600083815260200190815260200160002060006101000a81548173ffffffffffffffffffffffffffffffffffffffff021916908373ffffffffffffffffffffffffffffffffffffffff160217905550808273ffffffffffffffffffffffffffffffffffffffff168473ffffffffffffffffffffffffffffffffffffffff167fddf252ad1be2c89b69c2b068fc378daa952ba7f163c4a11628f55a4df523b3ef60405160405180910390a4505050565b600080826040516020018082805190602001908083835b6020831015156128285780518252602082019150602081019050602083039250612803565b6001836020036101000a0380198251168184511680821785525050505050509050019150506040516020818303038152906040526040518082805190602001908083835b602083101515612891578051825260208201915060208101905060208303925061286c565b6001836020036101000a0380198251168184511680821785525050505050509050019150506040518091039020600190049050600254818115156128d157fe5b06915050919050565b60006001600460c060405190810160405280868152602001858152602001600163ffffffff168152602001600354420163ffffffff168152602001600061ffff168152602001600061ffff16815250908060018154018082558091505090600182039060005260206000209060030201600090919290919091506000820151816000019080519060200190612970929190613812565b506020820151816001015560408201518160020160006101000a81548163ffffffff021916908363ffffffff16021790555060608201518160020160046101000a81548163ffffffff021916908363ffffffff16021790555060808201518160020160086101000a81548161ffff021916908361ffff16021790555060a082015181600201600a6101000a81548161ffff021916908361ffff1602179055505050039050336005600083815260200190815260200160002060006101000a81548173ffffffffffffffffffffffffffffffffffffffff021916908373ffffffffffffffffffffffffffffffffffffffff160217905550612ab96001600660003373ffffffffffffffffffffffffffffffffffffffff1673ffffffffffffffffffffffffffffffffffffffff1681526020019081526020016000205461351090919063ffffffff16565b600660003373ffffffffffffffffffffffffffffffffffffffff1673ffffffffffffffffffffffffffffffffffffffff168152602001908152602001600020819055507f88f026aacbbecc90c18411df4b1185fd8d9be2470f1962f192bf84a27d0704b78184846040518084815260200180602001838152602001828103825284818151815260200191508051906020019080838360005b83811015612b6c578082015181840152602081019050612b51565b50505050905090810190601f168015612b995780820380516001836020036101000a031916815260200191505b5094505050505060405180910390a1505050565b6000612bc56001601d5461351090919063ffffffff16565b601d81905550814233601d54604051602001808481526020018373ffffffffffffffffffffffffffffffffffffffff1673ffffffffffffffffffffffffffffffffffffffff166c0100000000000000000000000002815260140182815260200193505050506040516020818303038152906040526040518082805190602001908083835b602083101515612c6e5780518252602082019150602081019050602083039250612c49565b6001836020036101000a038019825116818451168082178552505050505050905001915050604051809103902060019004811515612ca857fe5b069050919050565b60008082840190508361ffff168161ffff1610151515612ccc57fe5b8091505092915050565b60035442018160020160046101000a81548163ffffffff021916908363ffffffff16021790555050565b600073ffffffffffffffffffffffffffffffffffffffff168173ffffffffffffffffffffffffffffffffffffffff1614151515612d3c57600080fd5b8073ffffffffffffffffffffffffffffffffffffffff166000809054906101000a900473ffffffffffffffffffffffffffffffffffffffff1673ffffffffffffffffffffffffffffffffffffffff167f8be0079c531659141344cd1fd0a4f28419497f9722a3daafe3b4186f6b6457e060405160405180910390a3806000806101000a81548173ffffffffffffffffffffffffffffffffffffffff021916908373ffffffffffffffffffffffffffffffffffffffff16021790555050565b6000428260020160049054906101000a900463ffffffff1663ffffffff1611159050919050565b6060612e2b613892565b612e33613892565b600080606080606060008060007f536861646f7700000000000000000000000000000000000000000000000000008a6000600881101515612e7057fe5b602002019060001916908160001916815250507f426c6f6f640000000000000000000000000000000000000000000000000000008a6001600881101515612eb357fe5b602002019060001916908160001916815250507f47726176650000000000000000000000000000000000000000000000000000008a6002600881101515612ef657fe5b602002019060001916908160001916815250507f536b756c6c0000000000000000000000000000000000000000000000000000008a6003600881101515612f3957fe5b602002019060001916908160001916815250507f546f7869630000000000000000000000000000000000000000000000000000008a6004600881101515612f7c57fe5b602002019060001916908160001916815250507f56656e6f6d0000000000000000000000000000000000000000000000000000008a6005600881101515612fbf57fe5b602002019060001916908160001916815250507f526f7474656e00000000000000000000000000000000000000000000000000008a600660088110151561300257fe5b602002019060001916908160001916815250507f44656174680000000000000000000000000000000000000000000000000000008a600760088110151561304557fe5b602002019060001916908160001916815250507f57616c6b6572000000000000000000000000000000000000000000000000000089600060088110151561308857fe5b602002019060001916908160001916815250507f52697070657200000000000000000000000000000000000000000000000000008960016008811015156130cb57fe5b602002019060001916908160001916815250507f476e61776572000000000000000000000000000000000000000000000000000089600260088110151561310e57fe5b602002019060001916908160001916815250507f466565646572000000000000000000000000000000000000000000000000000089600360088110151561315157fe5b602002019060001916908160001916815250507f426974657200000000000000000000000000000000000000000000000000000089600460088110151561319457fe5b602002019060001916908160001916815250507f4c75726b657200000000000000000000000000000000000000000000000000008960056008811015156131d757fe5b602002019060001916908160001916815250507f4d61756c6572000000000000000000000000000000000000000000000000000089600660088110151561321a57fe5b602002019060001916908160001916815250507f526176616765720000000000000000000000000000000000000000000000000089600760088110151561325d57fe5b60200201906000191690816000191681525050600864e8d4a510008d81151561328257fe5b0481151561328c57fe5b069750600864174876e8008d8115156132a157fe5b048115156132ab57fe5b0696506132c98a896008811015156132bf57fe5b6020020151613547565b95506132e689886008811015156132dc57fe5b6020020151613547565b945084516001875101016040519080825280601f01601f1916602001820160405280156133225781602001602082028038833980820191505090505b50935060009250600091505b85518210156133e157858281518110151561334557fe5b9060200101517f010000000000000000000000000000000000000000000000000000000000000090047f01000000000000000000000000000000000000000000000000000000000000000284848060010195508151811015156133a457fe5b9060200101907effffffffffffffffffffffffffffffffffffffffffffffffffffffffffffff1916908160001a905350818060010192505061332e565b7f2000000000000000000000000000000000000000000000000000000000000000848480600101955081518110151561341657fe5b9060200101907effffffffffffffffffffffffffffffffffffffffffffffffffffffffffffff1916908160001a905350600090505b84518110156134fe57848181518110151561346257fe5b9060200101517f010000000000000000000000000000000000000000000000000000000000000090047f01000000000000000000000000000000000000000000000000000000000000000284848060010195508151811015156134c157fe5b9060200101907effffffffffffffffffffffffffffffffffffffffffffffffffffffffffffff1916908160001a905350808060010191505061344b565b839a5050505050505050505050919050565b600080828401905083811015151561352457fe5b8091505092915050565b600082821115151561353c57fe5b818303905092915050565b6060806000806060600060206040519080825280601f01601f1916602001820160405280156135855781602001602082028038833980820191505090505b50945060009350600092505b602083101561369e5760007f01000000000000000000000000000000000000000000000000000000000000000287846020811015156135cc57fe5b1a7f0100000000000000000000000000000000000000000000000000000000000000027effffffffffffffffffffffffffffffffffffffffffffffffffffffffffffff1916141561361c5761369e565b868360208110151561362a57fe5b1a7f010000000000000000000000000000000000000000000000000000000000000002858580600101965081518110151561366157fe5b9060200101907effffffffffffffffffffffffffffffffffffffffffffffffffffffffffffff1916908160001a9053508280600101935050613591565b836040519080825280601f01601f1916602001820160405280156136d15781602001602082028038833980820191505090505b509150600090505b838110156137855784818151811015156136ef57fe5b9060200101517f010000000000000000000000000000000000000000000000000000000000000090047f010000000000000000000000000000000000000000000000000000000000000002828281518110151561374857fe5b9060200101907effffffffffffffffffffffffffffffffffffffffffffffffffffffffffffff1916908160001a90535080806001019150506136d9565b8195505050505050919050565b828054600181600116156101000203166002900490600052602060002090601f016020900481019282601f106137d357803560ff1916838001178555613801565b82800160010185558215613801579182015b828111156138005782358255916020019190600101906137e5565b5b50905061380e91906138b6565b5090565b828054600181600116156101000203166002900490600052602060002090601f016020900481019282601f1061385357805160ff1916838001178555613881565b82800160010185558215613881579182015b82811115613880578251825591602001919060010190613865565b5b50905061388e91906138b6565b5090565b61010060405190810160405280600890602082028038833980820191505090505090565b6138d891905b808211156138d45760008160009055506001016138bc565b5090565b905600a165627a7a723058200a56076c6e5b203a1a1ae0d8d4aa5b995bc2d80af9578f224251bb95511e884c0029",
  "source": "pragma solidity ^0.4.25;\n\nimport \"./zombieownership.sol\";\n\ncontract ZombieMarketplace is ZombieOwnership {\n\n    struct Listing {\n        uint256 zombieId;\n        address seller;\n        uint256 price;\n        bool    active;\n    }\n\n    Listing[] public listings;\n    mapping(uint256 => uint256) public zombieToListing;\n    mapping(uint256 => bool)    public zombieIsListed;\n\n    event ZombieListed(uint256 indexed zombieId, address indexed seller, uint256 price);\n    event ZombieSold(uint256 indexed zombieId, address indexed buyer, uint256 price);\n    event ZombieDelisted(uint256 indexed zombieId);\n\n    function listZombie(uint256 _zombieId, uint256 _price) external onlyOwnerOf(_zombieId) {\n        require(_price > 0, \"Price must be > 0\");\n        require(!zombieIsListed[_zombieId], \"Already listed\");\n\n        uint256 listingId = listings.push(Listing({\n            zombieId: _zombieId,\n            seller:   msg.sender,\n            price:    _price,\n            active:   true\n        })) - 1;\n\n        zombieToListing[_zombieId] = listingId;\n        zombieIsListed[_zombieId]  = true;\n\n        emit ZombieListed(_zombieId, msg.sender, _price);\n    }\n\n    function buyZombie(uint256 _zombieId) external payable {\n        require(zombieIsListed[_zombieId], \"Not listed\");\n        uint256 listingId = zombieToListing[_zombieId];\n        Listing storage listing = listings[listingId];\n        require(listing.active, \"Listing not active\");\n        require(msg.sender != listing.seller, \"Cannot buy your own zombie\");\n        require(msg.value >= listing.price, \"Insufficient ETH\");\n\n        listing.active = false;\n        zombieIsListed[_zombieId] = false;\n\n        address seller = listing.seller;\n        _transfer(seller, msg.sender, _zombieId);\n        seller.transfer(listing.price);\n\n        if (msg.value > listing.price) {\n            msg.sender.transfer(msg.value - listing.price);\n        }\n\n        emit ZombieSold(_zombieId, msg.sender, listing.price);\n    }\n\n    function delistZombie(uint256 _zombieId) external onlyOwnerOf(_zombieId) {\n        require(zombieIsListed[_zombieId], \"Not listed\");\n        uint256 listingId = zombieToListing[_zombieId];\n        listings[listingId].active = false;\n        zombieIsListed[_zombieId]  = false;\n        emit ZombieDelisted(_zombieId);\n    }\n\n    function getActiveListings() external view returns (uint256[]) {\n        uint256 count = 0;\n        for (uint256 i = 0; i < listings.length; i++) {\n            if (listings[i].active) count++;\n        }\n        uint256[] memory result = new uint256[](count);\n        uint256 idx = 0;\n        for (uint256 j = 0; j < listings.length; j++) {\n            if (listings[j].active) result[idx++] = j;\n        }\n        return result;\n    }\n\n    function getListingCount() external view returns (uint256) {\n        return listings.length;\n    }\n}\n",
  "sourcePath": "/app/contracts/ZombieMarketplace.sol",
  "compiler": {
    "name": "solc",
    "version": "0.4.25+commit.59dbf8f1.Emscripten.clang"
  },
  "schemaVersion": "3.4.16",
  "updatedAt": "2026-03-17T06:07:23.482Z",
  "devdoc": {
    "methods": {
      "isOwner()": {
        "return": "true if `msg.sender` is the owner of the contract."
      },
      "owner()": {
        "return": "the address of the owner."
      },
      "renounceOwnership()": {
        "details": "Allows the current owner to relinquish control of the contract."
      },
      "transferOwnership(address)": {
        "details": "Allows the current owner to transfer control of the contract to a newOwner.",
        "params": {
          "newOwner": "The address to transfer ownership to."
        }
      }
    }
  },
  "userdoc": {
    "methods": {
      "renounceOwnership()": {
        "notice": "Renouncing to ownership will leave the contract without an owner. It will not be possible to call the functions with the `onlyOwner` modifier anymore."
      }
    }
  }
}